:020000022000DC
:1060000098980020E9D3020081C70400BDD30200A4
:10601000BDD30200BDD30200BDD3020000000000CA
:106020000000000000000000000000002DD1020070
:10603000BDD3020000000000E5D00200BDD3020085
:10604000A9D10200A90A0400A9D10200A9D1020025
:10605000A9D10200A9D10200A9D10200A9D1020050
:10606000A9D10200A9D10200A9D10200A9D1020040
:10607000A9D10200A9D10200A9D10200A9D1020030
:10608000A9D10200A9D10200A9D10200A9D1020020
:10609000A9D10200A9D10200A9D10200A9D1020010
:1060A000A9D10200A9D10200A9D10200A9D1020000
:1060B000A9D10200A9D10200A9D10200A9D10200F0
:1060C000A9D10200A9D10200A9D10200A9D10200E0
:1060D000A9D10200A9D10200A9D10200A9D10200D0
:1060E000A9D10200A9D10200A9D10200A9D10200C0
:1060F000A9D10200A9D10200A9D10200A9D10200B0
:1061000053B94AB9002908BF00281CBF4FF0FF311E
:106110004FF0FF3000F074B9ADF1080C6DE904CE1A
:1061200000F006F8DDF804E0DDE9022304B0704772
:106130002DE9F047089E04468846002B40F08580F4
:106140008A42154648D9B2FA82F24AB1C2F1200712
:1061500001FA02F320FA07F7954047EA0308944052
:106160004FEA154E230CB8FBFEF71FFA85FC0EFB19
:10617000178843EA084307FB0CF1994209D9EB1849
:1061800007F1FF3080F0E380994240F2E080023F67
:106190002B445B1AA4B2B3FBFEF00EFB103344EAAF
:1061A000034400FB0CFCA44509D92C1900F1FF3372
:1061B00080F0CB80A44540F2C88002382C4440EAED
:1061C0000740A4EB0C0400271EB1D4400023C6E90D
:1061D00000433946BDE8F087002A53D0B2FA82F274
:1061E000002A40F0B680491B4FEA154E1FFA85F889
:1061F0000127B1FBFEFC230C0EFB1C1143EA0143FB
:1062000008FB0CF1994207D9EB180CF1FF3002D2D0
:10621000994200F2EC808446591AA3B2B1FBFEF019
:106220000EFB101443EA044408FB00F8A04507D90C
:106230002C1900F1FF3302D2A04500F2DC80184691
:10624000A4EB080440EA0C40BEE78B4208D9002EBC
:1062500078D00027C6E9000138463946BDE8F08706
:10626000B3FA83F77FB98B4202D3824200F2BD803A
:10627000841A61EB030301209846002EA9D0C6E9D9
:106280000048A6E7FFDEC7F12005BB4022FA05FC67
:106290004CEA030C01FA07F420FA05F821FA05F399
:1062A0004FEA1C4E48EA0404B3FBFEF9210C0EFB36
:1062B00019331FFA8CF841EA034309FB08FA9A459F
:1062C00002FA07F200FA07F10BD91CEB030309F1FC
:1062D000FF3080F088809A4540F28580A9F102095C
:1062E0006344A3EB0A03A4B2B3FBFEF00EFB10332E
:1062F00044EA034400FB08F8A04508D91CEB040459
:1063000000F1FF336BD2A04569D90238644440EAFA
:106310000940A4EB0804A0FB02894C45C6464B4645
:1063200054D351D0002E69D0B1EB0E0264EB0304BC
:1063300004FA05F522FA07F3FC401D43C6E90054B0
:10634000002746E73746304643E7184637E7074613
:106350001FE7C2F1200320FA03F7954001FA02F08B
:1063600021FA03F34FEA154E3843010CB3FBFEF755
:106370001FFA85F80EFB173341EA034107FB08F3C8
:106380008B4204FA02F407D9691807F1FF3C28D2BE
:106390008B4226D9023F2944CB1A81B2B3FBFEF0CF
:1063A0000EFB103341EA034100FB08F38B4207D98F
:1063B000691800F1FF3C10D28B420ED902382944F3
:1063C000C91A40EA074714E74145ABD2B8EB020EC1
:1063D00069EB0C0201381346A4E76046F0E7184663
:1063E00095E76746D8E781467BE7384645E7ACF155
:1063F000020C2B4410E702382C4421E73746E8E62C
:10640000704700BF0000000073B5404DD5F854310F
:10641000996811F0010123D101AA40F6034007F069
:10642000E9FE044600286ED1019B9B681B78A3B946
:1064300009F06AF9BFF35B8F2B4653F8CC2FBFF3FB
:106440005B8F02F00502BFF35B8F53E8001F43E848
:1064500000200028F9D1BFF35B8F01981EF096F859
:1064600001AA002141F2030007F0C4FE04460028FF
:1064700049D1019B264899680822013126F03CFA4F
:1064800001981EF083F8214601AA41F2010007F0AD
:10649000B1FE0446002836D1019883685A7885F801
:1064A0006820D9789A7842EA0122A5F86A201A79F8
:1064B00085F86920197ADA7942EA0122A5F86C2078
:1064C0005A799B7942EA0323A5F86E301EF05EF8F4
:1064D000214601AA41F2020007F08CFE044690B961
:1064E000019B0C4899684022013126F005FA0948C1
:1064F00026F0B7FA01981EF049F895F8743058065E
:106500000AD46FF01204204602B070BD00000020D3
:106510007000002078000020214601AA42F203000A
:1065200007F068FE04460028EDD1019BBA4899683F
:106530000822013126F0E0F901981EF027F82146E3
:1065400001AA42F2020007F055FE04460028DAD103
:10655000019B9B68B3F80120A5F8FC2091B221B102
:10656000DA78AE4811462BF088F801981EF00EF844
:1065700095F8744014F0200400F0218195F89430CF
:10658000190711D501AA002142F21C0007F032FEC2
:1065900004460028B7D10198836853F8012F5B683F
:1065A000C5E936231DF0F2FF95F8D0309A0623D5C1
:1065B0000DF10201684626F0BFFC04460028A2D176
:1065C000042142F2240007F0BBFD0646002800F03B
:1065D000FD80042108302AF0E4F8BDF80030038083
:1065E000BDF8023043802246314642F2240007F0D3
:1065F00001FE0446002886D195F8D0305B0610D500
:1066000001AA002142F22A0007F0F4FD0446002806
:106610007FF479AF019883685B7885F818311DF0B5
:10662000B5FF082142F2010007F08AFD0446002868
:1066300000F0CC80082108442AF0B3F895F8D01077
:1066400011F0400F40F2022308BF03238E074CBF16
:1066500043F02C0343F00C030246880695F8D10062
:1066600048BF43F0400310F0090F18BF43F4006324
:10667000CE0795F89A1001F0060148BF43F01003C9
:10668000062908BF43F4C0731846002126F095FB85
:106690002146002242F2010007F0ACFD044600282A
:1066A0007FF431AF95F87430B5F8FC10980600F11E
:1066B000A280D9B901AA41F2050007F09BFD04466A
:1066C00000287FF420AFB5F8FC3063B9019B9B68CC
:1066D0005A78997842EA0122A5F8FC209A884F4816
:1066E00011462AF0CAFF01981DF050FF082140F61C
:1066F000014007F025FD0446002867D00821084422
:106700002AF04FF895F8D030D907024679D540A144
:10671000D1E9000126F051FB2146002240F601405C
:1067200007F068FD044600287FF4EDAE014601AA9B
:106730004FF6014007F05EFD044648BB01981DF08E
:1067400025FF214601AA4FF6024007F053FD0446FB
:10675000F0B9019B324899680222013126F0CCF849
:1067600001981DF013FF95F8B9305B0710D501AA09
:1067700021464FF6034007F03DFD48B9019B2948EB
:1067800099680122114426F0B7F801981DF0FEFE29
:1067900026F01EFE044600287FF4B5AE0AF02EF95E
:1067A000044600287FF4AFAEEB79002B3FF4ABAE8C
:1067B00004211D4826F00BFA08F0BAF8A3E60221DE
:1067C00040F66D4007F0BCFC064610B96FF0680457
:1067D00099E60221083029F0E4FF01234470037098
:1067E0002246314640F66D4007F004FD044600287D
:1067F0003FF4C4AE87E600297FF478AF6FF004045D
:1068000081E60A484FF0005184E700BFAFF30080F3
:106810009088000200800020D000002000010020AD
:10682000B9000020B8000020CC0000201088000231
:106830002DE9F0410F46D0E90B15866A4C1930342A
:10684000A642904618D8144D11A3D3E90023A1FB0A
:106850000501FFF755FCA41B20F07F4038600CA316
:10686000D3E90023A5FB0401FFF74AFC20F07F4099
:10687000C8F80000BDE8F081074C05A3D3E9002368
:10688000A6FB0401FFF73CFC3035E5E7AFF30080E1
:106890008D49FD1A0700000000CA9A3B0000000065
:1068A0002DE9F04F6A4C94F86AA095B00AF0010AFD
:1068B00000284BD0BAF1000F40F0C38094F82500B7
:1068C000FF2300F0030084F8263019F01BFB94F836
:1068D0006A0042072BD494F8292094F8353004EB51
:1068E000820204EB8303D76AD3F8388087B1394634
:1068F000574812F0B5FE3B785B0605D506210DF032
:106900007FFD002800F06D824146514812F0A8FE3C
:106910003B7813F00E0F40F0AF81236A002B00F09C
:10692000A5804FF00C0A504615B0BDE8F08FC0F3BB
:10693000C000524604F16B0119F07CFCFF2884F87A
:106940002600C8D0504619F023FBC4E7BAF1000F67
:1069500077D0236A53B193F8202042F0020283F8E3
:106960002020236A93F82030D807DAD4384811F071
:10697000BBFC84420CD040F6FF13364A36493748F8
:1069800023F0B2FE404080F311884FF0030002DF95
:1069900094F82430D9070FAD0ED502220F920321AF
:1069A00000952F4B012200200FF076F9294611F0B7
:1069B00073FC002840F05C8202210A460F9100958A
:1069C0000321274B00200FF067F9294611F064FCE2
:1069D000002840F02782234811F0C2FC70B17830C3
:1069E0000CD040F61E231B4A1F491C4823F07CFE96
:1069F000404080F311884FF0030002DF144811F08B
:106A00007FFC84420CD040F62123124A12491348DD
:106A100023F06AFE404080F311884FF0030002DF4C
:106A2000236A0BB112F0FAFB94F86A3000206FF37E
:106A3000000384F86A3013F005F88246002800F05D
:106A4000CD814FF0000A504615B0BDE8F08F00BF71
:106A500020560020D03E0500D83F05005C3B0500D5
:106A6000AD7703003C560020E43F050011F05EFBCB
:106A70008346002800F0F08111F064FB0A900028A2
:106A800000F0F08113F056FC0546002800F0E78185
:106A90004FF6FF73406F2B8505F11C030D93002803
:106AA00000F0D68105F1680205F164010DF0B4FC37
:106AB000D34EB5F8603095F8392095F87A0095F8FE
:106AC0003C1095F8D6C0DFF850E3C5F85CE03340E1
:106AD00043F48873002643F0010302F03F0266F39B
:106AE000000C4FF01B1E62F07F0220F0070021F027
:106AF0000701A5F860304FF006034FF6FF7985F8DF
:106B0000D6C0C5F858E085F8392085F87A0085F8B0
:106B10003C10A5F8C03006226FF0FF030DF14101D3
:106B20006E67A5F87860EE852E6385F83B60C5E951
:106B300012662E65A5F8C460A5F8C860A5F8D060F7
:106B4000A5F8CC6005F1D7001093ADF844908DF80E
:106B5000469025F0D1FE95F8D610ADF84C9066F32E
:106B600041016FF0FF03062285F8D61005F1DD0024
:106B70000DF1490112938DF84E9025F0BDFE95F868
:106B8000E430A5F8F06023F0070385F8E43085F8D9
:106B9000F260C5F81461A5F81861A5F8306110F02D
:106BA0009FFD95F896E195F8BEC195F84A9195F844
:106BB0007A2095F87631A5F8486166F3451E66F3AC
:106BC000C30C22F0180223F00703C5E94E0129F097
:106BD00003090021002085F896E185F8BEC1C5E9CA
:106BE000500185F87A2085F87631A5F8506185F84E
:106BF0005361A5F8746185F8E560A5F89461C5F85E
:106C0000EC60A5F8BC61A5F8C861C5F854B185F879
:106C10004A9113F009FFA5F8D20013F00BFFD5F845
:106C2000CC21784BA5F8D4001340C5F8CC3113F033
:106C300007FF95F8D03160F3020385F8D03113F0E7
:106C400005FF95F8D0310A9A626660F3C5030D9A84
:106C5000C4F860B02262C5F8E461C5E97766C5E9A9
:106C6000756685F8D0312E70C5E90566ED611AF0BC
:106C700059FC002840F0B88094F824300121C3F377
:106C800042030FA88DF83C300DF038FD30B9236A6F
:106C9000002B3FF446AE12F0C1FA42E698F801101C
:106CA0000246384612F0F0F8574BB4F8686080B2EC
:106CB0000025A0FB03013123C4E9023525704EA352
:106CC000D3E90023C4E905556560FFF719FA20618F
:106CD0000FF08AF880463EB93D7805F00F05A5F122
:106CE0000105B5FA85F56D0994F82430276965F337
:106CF000000313F0010584F824302CD0DFF81C9138
:106D0000424B0593002002250EAE03210694049702
:106D100001972A46CDE90796CDE902000090434647
:106D20000E950EF02FFF314611F0B6FA0028AED1C5
:106D3000374905914AF2D8320092CDE90796069478
:106D4000CDE90300CDE901004346012203210E9560
:106D50000EF018FF30E0B2B200232E48DFF8C0C0BA
:106D6000DFF8B8E00694CDE90A23A2FB00010A9AF5
:106D7000912303FB021107F24713CCF80030234B99
:106D800004974FF0020905930EAE1BA3D3E900232D
:106D90004FF6FF770295CDF824C0CDF83890CDE9B5
:106DA00007E60397FFF7ACF94A46CDE900504346A2
:106DB000284603210EF08CFE314611F06DFA0028B2
:106DC0007FF465AF94F86A3043F0010384F86A30C9
:106DD00012F038FE00287FF434AE012019F074F868
:106DE000A1E54FF0120A9EE512F018FA4FF0030ADF
:106DF00099E500BFAFF300808D49FD1A0700000040
:106E000080F8FFFF0000FFF600CA9A3B8590030060
:106E100001900300002AE78448014801AD77030090
:106E200098560020174811F06BFA84423FF479AD70
:106E300040F61823144A1549154823F055FC4040E4
:106E400080F311884FF0030002DF4FF00C0A6AE56F
:106E500005F16C00686725E64FF0070A63E50A98BC
:106E600011F076F9584611F067F94FF0070A5AE524
:106E7000044811F045FA84423FF453AD40F60A232A
:106E8000D8E700BF20560020D03E0500D83F0500BF
:106E90005C3B050000000000F0B590F824308BB09A
:106EA000C3F342030D46044601210DF123001646AB
:106EB0008DF823300DF022FC71780246284611F03F
:106EC000E3FF1F4B80B2A0FB03011BA3D3E9002308
:106ED000FFF716F923699842054620D21B1A0020B5
:106EE000184A194E0293A21AA6FB023217490190C2
:106EF0009209002309AE0232CDE90516D2B2032170
:106F0000CDE9033300931846022709970EF0ACFE33
:106F1000314611F0C1F930B925610BB0F0BD05D98A
:106F2000C01A0023DCE70C200BB0F0BD00200BB032
:106F3000F0BD00BFAFF300808D49FD1A07000000CF
:106F400000CA9A3B2056002089888888AD770300C4
:106F50002DE9F047184D9DF820C095F8444014F0F5
:106F600001081ED195F83260DFF850E0A9871FFABA
:106F700082F960F3451663F34204A9FB0E016CF33A
:106F8000C406912303FB091185F8444008A3D3E903
:106F9000002385F83260FFF7B3F828644046BDE867
:106FA000F0874FF00C084046BDE8F087AFF3008053
:106FB0008D49FD1A07000000BC560020002AE78416
:106FC0002DE9784805469DF81860AC7D0C482A8468
:106FD0001FFA83FB61F345149123ABFB000166F3B9
:106FE000C40403FB0B11AC7503A3D3E90023FFF723
:106FF00087F86862BDE878888D49FD1A07000000AF
:10700000002AE784000000002DE9F04F044600F15B
:10701000350190F8440094F83230C0F3400060F33A
:1070200086138DB084F832300EF014FFA68F94F8DA
:1070300032304F48E4610025A6FB0001912203F0A5
:10704000790302FB061184F83230257046A3D3E998
:107050000023C4E90555FFF753F8236C65608046AB
:107060000933A8F1310293424FF03101C4E902150E
:107070002ABF2564236122610EF0B6FE256A81468F
:107080000BAE002D4DD008963A4DB4F83CA03A49CD
:1070900037482269DFF8ECC00492651BA1FB053577
:1070A000AAFB0001912303FB0A11344B05934FF017
:1070B000000A02272CA3D3E90023CDF81CC00694B4
:1070C0000B97CDF80CA0FFF71BF8104619464FF4AC
:1070D0007A720023FFF714F82D090435EDB22A4621
:1070E00002904B460321CDF800A05046CDF8048015
:1070F0000EF048FD314611F0CFF8054668B994F816
:10710000443043F0010384F8443012F07FFA04461F
:1071100000B328460DB0BDE8F08F0C200DB0BDE8DF
:10712000F08F21690A9533460AAA03200B9501F0D6
:10713000E7F90B990029A6D011480BA3D3E9002346
:10714000A1FB0001FEF7DCFF0A9B20F07F4000EB73
:10715000030998E7384618F0B7FE20460DB0BDE8A1
:10716000F08F00BFAFF300808D49FD1A07000000CB
:10717000002AE784BC560020398EE338619803006A
:1071800000CA9A3BAD7703002DE9F04FC38D478EBF
:1071900016461F4490F81A21BFB2394412F0070373
:1071A0008BB0044689B20AD05A1E042A00F27683B4
:1071B000DFE812F0C6016D02390265013E02B0F847
:1071C000F490A1EB09018DB22A0400F1838190F9BA
:1071D0003920002AC0F2708294F8F03084F8F1303F
:1071E00094F8942194F8953194F8181184F81911B1
:1071F00093420AD094F8963103F00F03062B04D182
:10720000002384F89521A4F8C830BF4BD4F814812A
:107210001A68944204BF00221A60B8F1000F00F00F
:107220005E81D8F80000002800F05981B4F81C31C4
:10723000B4F82AC04268C4F814216345B4F81E218A
:10724000B4F8201100F04082B4F828C0A8F806C0B5
:107250004FF0180E4FF0000CA8F81E30A8F82020B0
:10726000A8F8221088F804E088F81CC0414610F005
:1072700075FF10F07DFFA368002B09DAE2686168F2
:1072800023F000438A422CBFB6187618A360F61A82
:10729000608DB4F81C8110FB05F080B2B0FBF8F2F1
:1072A0001FFA82FA18FB0AF39BB2984280F0D6804C
:1072B0001B1A40F2E242954802FB03F3A3FB0001D4
:1072C0008FA3D3E90023FEF71BFF20F07F40064485
:1072D000E28D94F939309144A9EB0707574440F205
:1072E000E249002BE78509FB08F7C0F20F82D4F8CA
:1072F0002401864982A3D3E90023A0FB0101FEF704
:10730000FFFE20F07F4000F10109BA46B4F82021C9
:10731000B4F81E117E4BA4F82A8042F2107000FBD4
:1073200002727C48A1853B443844B3FBF7F3013A31
:10733000B2FBF7F2B0FBF7F7A4F8C22098B28A1DAF
:107340009042A4F8CE00A4F8C67004DDC1F57F41D8
:10735000FA31014488B294F81A31A4F8CA001B0724
:1073600044BF0023A4F8C430022101201CF090FE89
:1073700000220221074601200DF09CF84FF4F8721C
:10738000654920460DF028F805305FFA80F8634B18
:1073900000944246012100200EF07EFC30F00203F2
:1073A0000CD040F6CC435E4A5E495F4823F09CF91E
:1073B000404080F311884FF0030002DF534BAAFBDB
:1073C00003AB50464EA3D3E900235946FEF798FE7F
:1073D000564A20F07F45A5FB02230721BAEB0200A5
:1073E00001FB05336BEB03014FF47A720023FEF7C8
:1073F00087FE94F939C04E4B4E4A21690491DFF85B
:107400003CE101954FF6FE7113EA2C0538BF154695
:1074100002903346039108940694CDF800904246BA
:107420000595CDF81CE0012100200EF0ABFB30F0FB
:1074300002030CD040F6E643394A3A493A4823F071
:1074400053F9404080F311884FF0030002DF002F12
:1074500040F0568100200BB0BDE8F08F08FB12020F
:1074600040F2E24392B2294803FB02F2A2FB000180
:1074700023A3D3E90023FEF743FE361A28E7858DC0
:1074800090F81A01D4F8F830D4F8D42106352944FC
:1074900089B26FF30200A4F8F410198184F81A017C
:1074A000A3F10901D4F8D80122B194F87651AE07BE
:1074B00040F17D81002800F08E81D4F8DC21106835
:1074C00043F8090C116053F8092CC4F8DC110AB90F
:1074D000C4F8E4116FF076000BB0BDE8F08F4FF404
:1074E00042630F4A1449104823F0FEF8404080F3ED
:1074F00011884FF0030002DFD8F8000096E600BFC5
:107500008D49FD1A070000001857002000CA9A3B59
:107510007FC3C901FF59620230310020599F030027
:1075200054400500B04005005C3B05008D49FD1A44
:1075300095EF030089F103009C400500019F0300C3
:10754000CB4F012010F01AFE8046002800F0548135
:10755000C8480CF00BFF0546002800F04D81C64BD3
:107560001A68002A00F0218110F028FED8F80030B7
:10757000D4F814215A600C23C4F814816B71D4F828
:1075800024312A79BD4894F81A1142F00302A0FB75
:10759000030300202A71E87194F828212A72C3F3AA
:1075A0008F23A268A5F80930B4F81C31A5F80B3078
:1075B0000320B4F81E31A5F80D3060F30201B4F8D1
:1075C0002031A5F80F30002AC4F8FC6084F81A11A5
:1075D0000ADAE368616822F000428B422CBFF61899
:1075E0007618B21AC4F8FC20A54E09350122C4F859
:1075F000F850334610460221F760B4600CF08EFF5D
:1076000000283FF467AF40F673339E4A9E499F4877
:1076100023F06AF8404080F311884FF0030002DF46
:107620006FF0760017E76FF00F000BB0BDE8F08F3A
:10763000914894F8F010D4F8F820D4F8D43184F8B4
:10764000F110002594F81811056094F8940184F85D
:10765000191184F89501A2F10901D4F8D801C3B138
:1076600094F87651AD0714D494F8CF51EF0710D4A5
:10767000D4F8E051AB4200F0C78068B9187900F047
:107680000300032800F0E780C4F8D83106E0804FFB
:1076900057E7002800F0A980D4F8DC31186842F8D8
:1076A000090C196052F8093CC4F8DC11002B00F0F9
:1076B000A6806FF08B00CEE690F8E520002A3FF41C
:1076C0008BAD80F8E5308BE5B4F82CC094457FF4A1
:1076D000BBAD40F2E24C0CFB03FA42F2107C0CFB17
:1076E00001ACB4F8C2E00CF1FF3CBCFBFAFC1FFAA1
:1076F0008CFCE6457FF4A8AD012388F80430B5E59D
:107700000122104602210CF0D5FEA3E6A26C236CE8
:10771000DFF8848103FB1525A56419F057FF0546A2
:1077200094F8E400C0F3C20019F052FF054407FBCF
:1077300005F5584BA26C94F8281105F5742505F24F
:107740003F25A3FB0535AD0C05FB0AF07B08024481
:10775000963B9A4209FB01FC28BF1A464FF0000EE7
:10776000C4E91132A0FB08013FA3D3E90023C4F808
:1077700050C0C4F8ECE02564FEF7C2FC3F4AD4F8E0
:107780002431A2FB03239B0A09FB03F9361A36A313
:10779000D3E90023A9FB0801FEF7B2FCA7EB050A19
:1077A00020F07F49B4F81C81B0E51C60DCE694F859
:1077B000CF51ED073FF57EAED4F8E051AA4232D06A
:1077C00000287FF47AAE107900F0030003283CD043
:1077D000C4F8D82173E643F8092CC4E97511C4F83C
:1077E000DC11002A7FF476AE72E642F8093CC4E967
:1077F0007511C4F8DC1159E76FF068002BE6C4F886
:10780000E4116FF08B0026E61D68C4F8E0510028F3
:107810007FF442AF186842F8090C196052F8093C2D
:10782000C4E9761142E71568C4F8E05100287FF4F6
:1078300044AE106843F8090C116053F8092CC4E9F0
:107840007611002A7FF446AE42E6D0790328F0D0C4
:107850000A28BDD1EDE7D8790328DBD00A287FF4C8
:1078600013AFD7E7AFF300808D49FD1A0700000082
:10787000E5F70300AC570020185700205917B7D17F
:10788000040B002054400500EC3C05005C3B050067
:10789000C186020083DE1B4300CA9A3B40F6C73311
:1078A000064A0749074822F01FFF404080F311882D
:1078B0004FF0030002DF002743E600BF54400500FD
:1078C000E43B05005C3B05002DE9F04F037F0E68AB
:1078D00097B08A46154636680A96C3F3801300F1BE
:1078E0001E010446062214A88DF847302E6825F0A4
:1078F00003F89AF811000C90FF280DF1480900F0E8
:1079000083804A460DF1470118F0ACF99DF84770A5
:107910000237FFB28DF84770236894F81C800B93F0
:107920000A9B4FEAD81803F1710B404659464B4663
:1079300007F0010213F090F800284BD196F8D620FA
:107940000D9067F3410286F8D6204946062206F1DB
:10795000DD0024F0D1FF96F8D62068F300025946E6
:1079600086F8D62006F1D700062224F0C5FF05F1DF
:107970000408032204F12E0105F1080024F0BCFFE5
:1079800005F11807042204F12A01404624F0B4FF4F
:107990000522384604F13A0124F0AEFF38460521AD
:1079A0000CF0ACFE94F83F106F7F00F03F0060F3E6
:1079B0000507C1F30402AA776F77A78EEF8101282C
:1079C000D2B2BFB206D91B3202F01F020B2A01D875
:1079D0000D9B0FBB95F82030E668DDE90A10002208
:1079E00062F3000301274A6185F8203021462771A0
:1079F00010F0B4FB31463068377110F0AFFB10F077
:107A0000B7FB17B0BDE8F08F4846062214A924F052
:107A100073FF9DF847707FE7DAF8002096F8E400DE
:107A2000536094F8372094F83630490943EA02232A
:107A300061F3C5002B82638E86F8E4000E9319F083
:107A4000C5FD0D9096F8E400C0F3C20019F0C0FD2A
:107A50000D9BDFF828C394F831102A8A40F2E24BDC
:107A60000BFB07F7184407FB00F000F5742000F249
:107A70003F20ACFB00C04FEA570C800C0BFB01F120
:107A8000ACF1960C6862C5F828C0A963218FB04B91
:107A9000ADF83E1042F2107C0CFB0171AD483B4446
:107AA00002F1060CB3FBF7F30139B1FBF7F1A6F8CD
:107AB000C21099B261453844A6F8CE10B0FBF7F079
:107AC000A6F8C60004DDC2F57F42FA320A4491B23C
:107AD000A6F8CA100422414606F1E80024F00CFF83
:107AE000234613F81CBFCBF3401B5FFA8BF20D92B9
:107AF000DA0700F1FE804FF48073A3830A9B93F8AA
:107B0000260018F027FE04F12B03002800F0E68081
:107B10001846062204F1240124F0EEFE0C9BFF2BF4
:107B200004F1250000F0E08014A9062224F0E4FE10
:107B30009DF84730A3774946062204F11F0024F040
:107B4000DBFE96F8E430E9892A8AA286C3F3C203F1
:107B500084F83830BDF83E30E3866186304612F056
:107B6000F5FB2146A881E080DAF804400B9810F07C
:107B7000F5FAAB89E3801B2323710D9BD4F80090A9
:107B8000002B40F0CB8084F81CB02146484610F012
:107B9000E5FA10F0EDFA95F84500B5F84080B5F833
:107BA0004240012100F0070019F030FB04EB08030C
:107BB000814603F5E173684800244B443122A3FB5E
:107BC0000001C6E9022474605FA3D3E90023FEF735
:107BD00097FADAF80C200E996B6A20F07F4040F299
:107BE000E24808FB01283061224602210120FF1AE9
:107BF0000CF060FC0A9D284611F0EEFC821CD2B20B
:107C000020460095554B01210EF046F808F2B24887
:107C10000128A8EB090800F08C800A9B93F8243017
:107C2000DB0773D4304612F091FBDFF82CB1A7FBD1
:107C30000B4545A3D3E90023074629462046FEF716
:107C40005FFA474A069620F07F49A9FB02230721E5
:107C500001FB09334FF4E471DAF808C00891414997
:107C6000079141490591A01A65EB0301336904931B
:107C700000254FF47A720023ACF13A040395FEF725
:107C80003FFA31A3D3E900230290A8FB0B01CDF802
:107C90000490FEF735FA053720F07F40FFB20090E0
:107CA00023463A46284601210DF06CFF30F00203CE
:107CB0000CD04FF4E5732D4A2D492E4822F014FDC7
:107CC000404080F311884FF0030002DF012210468C
:107CD00002210CF0EFFB17B0BDE8F08F0146062241
:107CE000184624F014FE19E70622002124F00FFEA6
:107CF0001EE7F1231D4A20491E4822F0F5FC4040B2
:107D000080F311884FF0030002DFF4E60023012224
:107D10000093184611460DF0BFFF83E76B7F43F0D9
:107D200040036B77404617F007FE0123E883237773
:107D30002BE710F0F1FA0A9B83423FF46EAF17F085
:107D400005F96AE7AFF300808D49FD1A07000000CE
:107D50007FC3C901FF59620200CA9A3B79EF030051
:107D60008D49FD1A1DEF030095EF030060420500E9
:107D7000B04005005C3B0500583C050083DE1B431A
:107D80002DE9F04F8DB09046059002930020BDF88C
:107D9000683006919DF85C70BDF860A0BDF864B0D5
:107DA000049311F05DFE002800F0BB8107F001068E
:107DB000054630460EF03EF80390002E6BD1169B20
:107DC000DDE90221304612F047FE002840F0BA817A
:107DD0002B6A05F11C020792002B63D0D5F8209086
:107DE000029BD9F8004003F0010A99F84400C0F35F
:107DF000C00100F0070019F007FAB9F84030B9F8EF
:107E00004210DB4A00F5E17018440844A0FB02016F
:107E1000D5A3D3E90023FEF773F920F07F4020615A
:107E2000404618F091F895F83330FF226FF3410384
:107E300085F8333085F83420B8F1000F00F07581F3
:107E4000BB1E012B40F2828195F8333095F8442017
:107E50006AF3000385F8333067F3420285F8442063
:107E60001699062205F1240024F046FD049B2B867A
:107E7000059A069B0798CDF800800021FFF7A0F82F
:107E800019F050FB002840F081812846FFF7BCF82C
:107E90000DB0BDE8F08F06210CF0B2FA00288ED1AB
:107EA0001220F5E710F042F90890002800F0A981AF
:107EB00012F040FA0446002800F0C181203004F19D
:107EC0001C090CF031FC002840F08A81032104F1E8
:107ED000240019F059F8606FA4F82AA04FF6FF7338
:107EE000A4F82CB02385002800F0878104F16802F3
:107EF00004F164010CF090FAB4F860309D4994F8F4
:107F00007A209D48E0650B4043F488734FF0000BE6
:107F100022F0070243F001034FF01B1184F87A208E
:107F2000A4F86030A165C4F874B0A4F878B0A4F8DF
:107F30002EB0C4F830B004F1340017F0B3FC94F85C
:107F4000393060F3050384F8393001210DF12F0039
:107F500019F01AF89DF82F208849894BB4F82CE0C5
:107F600084F83BB0A1FB0201C90801EB4101A2EB7F
:107F70008102053240F2E24C0992049A94F83900E9
:107F800094F83C10A4F8C4B00CFB0AFA42F2107C3E
:107F90000CFB02AC099A84F83A207A4AA4F8C8B0DB
:107FA00000F03F0053445244B3FBFAF384F8390025
:107FB0000CF1FF3C98B2BCFBFAFCB2FBFAFA0EF1F2
:107FC000060221F00301A4F8C2C090424FF0060C53
:107FD000A4F8D0B0A4F8CCB0A4F8CE00A4F8C6A001
:107FE00084F83C10A4F8C0C003DD0638A0EB0E00F6
:107FF00080B294F8E430A4F8CA004FF0000B23F0EC
:10800000070384F8E430A4F8F0B084F8F2B0C4F8C0
:1080100014B1A4F818B1A4F830B10FF061FB94F8D2
:108020004A2194F8763194F896E194F8BEC1A4F808
:1080300048B1C4E94E0194F87A100898A4F850B1F8
:1080400022F0030223F007036BF3451E6BF3C30C0E
:1080500021F0180184F84A2184F8763100220023A7
:1080600084F896E184F8BEC184F87A10C4E95023FC
:1080700084F853B1A4F874B1A4F894B1A4F8BCB1D5
:10808000A4F8C8B1C4F8540112F0CEFCA4F8D20090
:1080900012F0D0FCD4F8CC213B4BA4F8D400134010
:1080A000C4F8CC3112F0CCFC94F8D03160F3020368
:1080B00084F8D03112F0CAFC029994F8D02194F8D7
:1080C000D630C4F8E4B101F0010A60F3C5026AF3E6
:1080D0004103312184F8D02184F8D630A1600622F2
:1080E0001699C4F804B0C4E977BBC4E975BBC4F8F9
:1080F0000CB004F1DD0024F0FFFB94F8D6300399B6
:1081000067F3000384F8D630062204F1D70024F088
:10811000F3FBC5F8209084F800B0C4E905BBE46126
:1081200063E60C200DB0BDE8F08F18F0B5FC002818
:108130003FF486AE02981699424618F07BF885F80F
:1081400034007DE60B200DB0BDE8F08F002017F065
:108150001FFF95F8333043F00203374685F833307C
:1081600072E600BFAFF300808D49FD1A07000000E2
:1081700000CA9A3B80F8FFFF48014801ABAAAAAAAF
:108180007FC3C901FF5962020000FFF62C6AA36D8C
:1081900063B14FF497632C4A2C492D4822F0A4FA7E
:1081A000404080F311884FF0030002DF04F14C01DE
:1081B00004F148000CF034F90746002831D0266855
:1081C000A765D6F85441F4B120460FF0B5FF30460C
:1081D00012F0B6F8002303202B620DB0BDE8F08F3B
:1081E000BF23194A1B491A4822F07EFA404080F307
:1081F00011884FF0030002DF68E604F16C0060674D
:1082000074E6072044E640F2C1430F4A1249104881
:1082100022F06AFA404080F311884FF0030002DF39
:10822000D2E740F2BA43084A0B49094822F05CFA07
:10823000404080F311884FF0030002DFBFE7089849
:108240000FF07AFF072023E6BC420500BC3E050084
:108250005C3B0500FC3D05005C41050000000000A2
:108260002DE9F04F80468FB004460E46174600F1C8
:10827000240106220CA818F81C5F24F03DFB94F89A
:108280001CA018F0010FCAF3401AC5F3C0155FFA1D
:108290008AFB40F006810023A383B17C96F811800D
:1082A00011F0010104F12B004FF0060200F0E18013
:1082B00004F11E0124F020FBB8F1FF0F04F12509A1
:1082C00004F11F0300F0DF801A46404604F11E014E
:1082D00017F0C8FCA37F02330CA94846A3770622F7
:1082E00024F00AFB3368F989D3F800903B8AB9F887
:1082F0003020E286A386618619F066F984F838009A
:108300003D68284612F022F8D6F80480B88121464C
:10831000E08020680FF022FFBB89A8F806301B23FD
:1083200088F80430D8F80040BBF1000F40F0C78057
:1083300088F81CA0414620460FF010FF0FF018FFF0
:1083400097F84400FC89F368D5E90127974238BFC4
:10835000174640F2E24CC0F3C00100F0070003F101
:1083600020080CFB04F40B9718F04EFF00220221AA
:10837000A8EB000801200CF09DF8484611F048FBDE
:10838000021D574BCDF80090D2B2012100200DF014
:1083900083FC30F002030CD040F2CA33514A5249F8
:1083A000524822F0A1F9404080F311884FF00300B9
:1083B00002DF00273B4603220121009738460DF0DB
:1083C0006BFC284611F0C2FF4949B268DFF82C91D6
:1083D000484B069540F2F936CDE9071605932B690F
:1083E0000493A4FB09AB461DA2F10904504659466B
:1083F00039A3D3E900230397FDF782FE10461946FF
:108400004FF47A720023FDF77BFE33A3D3E90023F8
:10841000029059465046FDF773FE2FA3D3E900237F
:108420000190A8FB0901FDF76BFE0B9D20F07F403A
:10843000F6B2641B009023463246384601210DF007
:10844000A1FB30F002030CD040F2FB33254A264951
:10845000264822F049F9404080F311884FF003008C
:1084600002DF0122104602210CF024F80FB0BDE813
:10847000F08F24F04CFAB8F1FF0F04F1250904F154
:108480001F037FF421AF4846062200210B9324F0FE
:108490003EFA0B9BA5770CA91846062224F02CFA6D
:1084A00020E74FF452730F4A1349104822F01CF989
:1084B000404080F311884FF0030002DFEBE67B7F42
:1084C00043F040037B77381D17F036FA0123F88319
:1084D00088F81C302EE700BF8D49FD1A0700000008
:1084E00055F10300BC420500B04005005C3B0500AF
:1084F00059F1030089F10300583C050000CA9A3B7A
:108500002DE9F04F8DB01C4607934FF0FF09002373
:108510001746DFF8048123600A1D9A460446069236
:108520000A939B468DF827900BAE0AAD4FF0020CD4
:10853000CDE9018600953B460DF12702214600203A
:10854000CDF82CC00DF0F0FB02282DD00B9B8BBB7F
:108550009DF82700FF283DD00538C3B2052BE5D88C
:1085600080B211F0FBFE0028E0D090F93930002BEA
:10857000DCDBB9F1FF0F02690A9B0CD059461846A3
:10858000059204930DF032FC069B0AEB030188422E
:10859000DDE9043221D892469B469DF82790C5E735
:1085A000214600200DF008FC0B9B022BF8D00B9B02
:1085B000002BCDD07323144A1449154822F094F8A7
:1085C000404080F311884FF0030002DF9DF8270040
:1085D000FF28C1D1B9F1FF0F0ED00E48DA44AAFB33
:1085E0000001072303FB0A1105A3D3E90023FDF7CC
:1085F00087FD079B803018600DB0BDE8F08F00BF8D
:1086000000CA9A3B00000000084305004C430500E7
:108610005C3B05008D49FD1A25F5030000000000B4
:1086200070B51C4682B01546064601AA0220019587
:10863000FFF766FF236813B30198431B1B0220D486
:1086400029460DF0D3FB1C4A0721A0FB022301FBA6
:1086500000331946104616A3D3E90023FDF750FD59
:10866000236818442060002809DB40F2E24303FB42
:1086700006F3834203D2C01A8342FCD3206002B0C7
:1086800070BD014628460DF0B1FB0B4A0721A0FB47
:10869000022301FB00331946104605A3D3E900234A
:1086A000FDF72EFD2368181A2060DCE7AFF3008089
:1086B00000CA9A3B000000008D49FD1A000000002E
:1086C0002DE9F041B0F8A42188B0054640F2E2431C
:1086D000494805AE03FB02F30024A3FB0001062773
:1086E00043A3D3E9002374600594B4608DF80F7040
:1086F000FDF706FD0DF10F020196B5F89A310490D1
:1087000000922846012104AA16F00EFF9DF80FE002
:108710000EF1FF30C0B20DF11603214603EB40000D
:10872000AC4605F10C084FF6FF749CF8A5319CF897
:10873000A47147EA03273FB2BAB2BEF1000F09D0D5
:108740003346A24203D0198891423AD00121023324
:108750009842F6D10CF1020CE045E6D1D5F8F8309C
:10876000D1B1032203F8042C13F8052C95F81A1143
:10877000052042F0030260F3020103F8052C1124E6
:108780000F20202203F8024C03F8010C1A7085F820
:108790001A1108B0BDE8F081BDF8142040F2E241A2
:1087A00001FB02F1100AC5F824111A70587095F8EF
:1087B0001A31042262F3020385F81A3108B0BDE8C9
:1087C000F081D5F8F81040F2E24303FB02F3120AFD
:1087D000C5F824314A700F7095F81A31042262F3FB
:1087E000020385F81A3108B0BDE8F081AFF30080CC
:1087F0008D49FD1A0700000000CA9A3B00000000E6
:1088000038B5044619F058FDA37DC3F3410001308B
:1088100000F00300032834D060F34203A375253031
:1088200018F0B0FC636813B3236903B31BF0B2FA0A
:1088300005460DF0D9FAC11C00201BF071FA1BF09F
:10884000FDFA1BF0A7FA29460DF0D0FA124A0721CB
:10885000A0FB022301FB0033194610460CA3D3E909
:108860000023FDF74DFC2369181A206138BD0DF077
:10887000BBFAC11C00201BF053FABDE838401BF0C6
:10888000DDBA6FF34203A3752520C9E7AFF300807B
:1088900000CA9A3B000000008D49FD1A000000004C
:1088A0002DE9F04F87B004461BF02AF810F0FF0FB7
:1088B0000AD118F0BFFC2146C1481AF0F7FE1AF0A1
:1088C000F1FF07B0BDE8F08F1BF03AF807461BF048
:1088D0007BF906461BF082F981461BF0A5FB054695
:1088E0001BF086FB82461BF037F980461BF01AF915
:1088F00018F0A0FC17F0FF0FDDD001200FF0B4FD41
:108900000746002800F04A8116F0FF06EDB240F05D
:108910003C81002D40F0C2804FF0FF0932464B46AB
:108920002946204619F020FF0028C4D03A7F63680A
:1089300000205FFA88F802F00F018DF81300002B79
:1089400000F0C880636893F820309E0700F1C28071
:108950000729B0D0A37D180740F13E81002940F0DF
:10896000A3807B7F252B00F2D08004200FF07CFDBC
:108970000028A0D01BF06AFA636A064643B9228C2D
:1089800040F2712303FB02F3B0FBF3F203FB120688
:1089900023688C481B690722A3FB000102FB03111B
:1089A00085A3D3E90023FDF7ABFBA0F24230B04230
:1089B00081D31BF0A9F84846636817F0D9FEE37D20
:1089C0009B07804640F16281002800F05F8183466A
:1089D00001261AF0C3FF3B7FCDF808B0824607F1AD
:1089E0001E0205A85146C3F380130390009220464F
:1089F0000022019619F0FCFE50461AF031FF1AF0E1
:108A000075FF002840F0578121466F481AF04EFE4E
:108A10006168A37D91F8202043F0800342F00102B9
:108A200081F82020A3750FF03FFD4FF6FF73064637
:108A300016223F7F02715146C38024221C3023F04E
:108A40005BFF337FB460C7F3401767F34513337799
:108A50001BF0A0F9002130610120059F1AF010FFE2
:108A6000002D08BF4FF0FF0986F81990E37D381AF2
:108A700013F00203706103D018F1000318BF012343
:108A8000B27E63F30002B2760FF00EFD3146F06065
:108A900030680FF021FD0FF02FFD12E75FFA8AF02A
:108AA00017F0EAFE814639E7012915D17B7F0C2BAF
:108AB0007FF401AF00230193CDF80090D20907F1B4
:108AC0002403204619F074FD00287FF44EAF3A7F4E
:108AD00002F00F0100294CD006294AD0022900F0EB
:108AE0008A80012911D17B7F0C2B7FF4E4AE0DF13C
:108AF00013030193CDF80090D20907F1240300215C
:108B0000204619F055FD00BB3A7F02F00F02042AFF
:108B10007FF4D1AE7B7F252B3FF6CDAEA37DD8076A
:108B20007FF5C9AE1AF01AFF3B7F0278C3F38013BA
:108B3000B3EBD21F7FF4BFAE0830062207F11E014F
:108B400023F0CAFE00287FF4B6AE7B7F002B3FF4F3
:108B5000B2AE63682BB13B7F03F00F03072B7FF4AA
:108B6000AAAE4A46294640469DF8133019F05EFDEC
:108B7000A1E67B7F252BC8D8A17D890602D5616837
:108B800000293AD0252BE1D9BFE7A07D5FFA89F112
:108B9000C0F3C00017F00AFE8146BFE640F2C323CF
:108BA0000A4A0B490B4821F09FFD404080F3118891
:108BB0004FF0030002DFA7E600CA9A3B0000000066
:108BC0006D2304008D49FD1A612504006C470500E2
:108BD000384705005C3B0500C2F380114B4607F1A6
:108BE0001E02204619F0DAFD3A7F02F00F0100283C
:108BF0007FF4B4AE6EE77B7FC4E796201BF004F8E9
:108C000000201AF023FF2946404600234A4619F067
:108C10000DFD00287FF44FAE1AF0A0FE037803226A
:108C200062F3030303703B7F02780546C3F38013AE
:108C300063F3C7120C236B7048462A7017F098FD37
:108C4000E37D9E07014627D530B32A78284642F0B7
:108C5000400200F8022B062223F04EFE07F11E010F
:108C6000062205F1080023F047FE28461AF0F8FD19
:108C70001AF03CFE68BB1BF0E1F8A37D1C4843F0F2
:108C80000103A37521461AF011FD1AE6A67D04F131
:108C9000190BC6F380169CE6A37D2A78C3F38013D4
:108CA000284663F3861200F8022B04F1190106220C
:108CB00023F022FED2E740F291430E4A0E490F48BC
:108CC00021F012FD404080F311884FF0030002DFD5
:108CD0009AE640F21653074A0749084821F004FD76
:108CE000404080F311884FF0030002DFC3E700BF6C
:108CF000812304006C470500404705005C3B0500EC
:108D00002DE9F04F8FB083460DF137010DF136009C
:108D10000FF09CFADFF8E0809DF836300A939DF85A
:108D200037300B93DFF8D4900DF05EF8D8F80040A0
:108D3000A4FB09452AA3D3E90023824629462046FD
:108D4000FDF7DEF90646D8F80400274B0593002707
:108D500023A3D3E90023A0FB0901CDF818B0CDE986
:108D60000777FDF7CDF9214B26F07F46A6FB03BC24
:108D700020F07F40072303FB06CCCDE90370B4EB62
:108D80000B0065EB0C014FF47A720023FDF7B8F984
:108D90000097CDE9016053460B9A0A9803210CF025
:108DA000F1FE30F0020416D1114A1248002320F0DF
:108DB0003BF868B1009423469DF837209DF83600B3
:108DC00003210CF069FF6FF073000FB0BDE8F08F66
:108DD000D8F80C00F9E76FF08B00F6E7AFF30080EE
:108DE0008D49FD1A07000000F96004008D49FD1A45
:108DF000447B0B00406C0020306C002000CA9A3B82
:108E000038B50F4D04460CF0EFFFA9680CF0EEFFEB
:108E10000C49B0FBF4F40444686807A3D3E90023C9
:108E2000A0FB0101FDF76CF920F07F40844294BF64
:108E30000020012038BD00BF8D49FD1A0700000049
:108E4000306C002000CA9A3B014820F033B900BFC3
:108E5000600200202DE9174828F059FE4FF47A747B
:108E6000A0FB04BC04FB01CC4FEADB32074B42EA17
:108E70004C421A604FF4004200230548CDE900231C
:108E800020F0E8FE002003B0BDE81088703F00200D
:108E9000300E002008B5044B187800F0B1FABDE898
:108EA000084021F02AB800BFC6700020044B1A7891
:108EB000824202D01870FFF7EDBF0020704700BF5C
:108EC000C67000202DE9184828F021FE4FF47A746E
:108ED000A0FB04BC04FB01CC4FEADB32044B42EAAA
:108EE0004C421A600020BDE81848FFF7DFBF00BF02
:108EF000703F002030B585B028F009FE4FF47A733A
:108F0000164AA0FB034503FB01551268E30B43EA35
:108F100045439B1A124A93421ADD01F0D5FC0446E0
:108F200028B1012005B0BDE83040FFF7BFBF0220E7
:108F3000FFF7BCFF01ABC3E90144062201948DF8A1
:108F4000042093E8070005B0BDE8304023F0F5BCED
:108F500047F230529342E4DC05B030BD703F002050
:108F6000A0BB0D002DE930481A4D8CB00022002323
:108F700003A928461FF0E2FD10B10CB0BDE830880F
:108F8000059CDDE9030100F05DF8B4FA84F464099E
:108F9000FF238DF8183007908DF8204028F0B7FD9A
:108FA0004FF47A74A0FB04BC04FB01CC4FEADB3223
:108FB00042EA4C424FEADC33CDE90A230CAB13E919
:108FC00003008DE8030006AB0FCB00F025FA20F07C
:108FD00094FFCBE7DC0F00201FB583F00103CDE940
:108FE000011203930022002301A904481FF050FD41
:108FF000034820F05FF805B05DF804FBDC0F0020AB
:10900000743F002010B51FF017FB044678B10A49E1
:109010000A4828F0B3FBA36809491B682046984713
:10902000A3689B6833B120469847002010BD6FF0BD
:109030001500FBE71846F9E7658F0200743F002032
:10904000D98F02000C2303FB0011024B53F82100BF
:10905000704700BF0C2505000A4A52F82030013342
:1090600042F82030084A012303FA00F0137818432D
:10907000064BC0B210705A785870801A18BF012081
:10908000704700BF843F0020C7700020B90D00204A
:109090000D4A52F82030002B12DD013B42F82030FF
:1090A0000A4A2BB901238340107820EA030010708C
:1090B000074B107859785870401A18BF0120704734
:1090C0006FF01500704700BF843F0020C77000207C
:1090D000B90D0020044B054A1B7851781843507095
:1090E000401A18BF01207047C7700020B90D00203A
:1090F000044A054B50781B785370181A18BF01208A
:10910000704700BFB90D0020C7700020A0F1E00338
:10911000072B03D82030C0B2FFF79EBF064B0622B4
:1091200013F8011B19B1013AFAD10020704703F876
:10913000010C0028F7D0F8E7BC0D0020A0F1E003F7
:10914000072B10B404D82030C0B210BCFFF7A0BF6A
:10915000064A0623002112F8014BA04208BF02F87C
:10916000011C013BF7D1184610BC7047BC0D002014
:1091700008220021014823F0CABB00BFBA0D00201D
:1091800010B50849002301EB4302B2F8014024B1B5
:109190000133062BF7D1002010BDA2F801000028F2
:1091A000F6D0F8E7AC0D002030B50023074C194687
:1091B00004EB43020133B2F80150854204BF517001
:1091C0009170062BF4D1002030BD00BFAC0D002003
:1091D0000C220021014823F09ABB00BFAD0D0020F6
:1091E00000487047B90D002000487047AC0D0020C2
:1091F0002DE9F041144D154E761B80460F4605EBC8
:10920000C105C6F3C706B74204DB0024404628F078
:1092100013FE15E02A68D8F800309A420AD16B682C
:1092200040461B68984701280446EED0022804D027
:109230000028EBD101370835E5E788F804700024F1
:109240002046BDE8F08100BFE4530500245405002A
:109250000D4B0E4AD21A70B4C2F3C70200249442D6
:1092600003DB6FF0150070BC70471E680568AE42E6
:1092700006D15D688D4203D1E1B270BCFFF7B8BF83
:1092800001340833EBE700BFE45305002454050024
:109290002DE9F04145680769064628681FF0CCF9BA
:1092A0003860002849D095F805E029794EF400721D
:1092B000D0F810C0D0F80880012303FA01F4DCF8DC
:1092C00000301EF0010F14BF2343A343CCF800303D
:1092D000D8F80030984798BB03F012FA1A4803F008
:1092E00051F9044630BB1949194828F06CFA19485D
:1092F00003F0F2F87B795BB901233B710022002374
:1093000013481FF041FFB3681B680BB13046984704
:10931000E98879B14FF4004040F2E7360027E1FBDD
:1093200000674FF47A72002330463946FCF7E8FEB6
:1093300020F03AFA2046BDE8F0816FF01504F9E715
:109340006FF00404F6E700BF80020020599302008A
:10935000A0120020E04B050030B58BB0084C204631
:109360001FF06AF90569074A23462821684604F078
:10937000FBF80122291D684603F076F80BB030BDDA
:10938000EA4B0500F44B050008B54FF4F01200233A
:1093900002481FF02DFF00EAE07008BDA012002077
:1093A0002DE9F3410D461746124901AA984621F0CE
:1093B000A5FFC0B1019EB6B9012D17D10E4C2A46AA
:1093C000211D4046B847002806DB657124790B480B
:1093D0002CB120F0A4FD304602B0BDE8F08120F0B1
:1093E000B8FD2046F8E76FF00100F5E76FF01500D3
:1093F000F2E700BFEA4B0500A43F00203020050043
:1094000010B504460C2028F01EFD024A02600472CA
:1094100010BD00BF3026050084B070B504AC84E8F0
:109420000F00202028F00FFD0446084B44F8083BAD
:1094300004AD06460FCD0FC495E8030084E8030091
:109440003046BDE8704004B0704700BF34260500C8
:109450000268034B9A420CBF08300020704700BFDF
:10946000342605007FB56C4684E80F00182028F0EC
:10947000EAFC0546054B45F8083B064694E80F0014
:1094800085E80F00304604B070BD00BF38260500E7
:1094900084B070B504AC84E80F00202028F0D3FC21
:1094A0000446084B44F8083B04AD06460FCD0FC4F4
:1094B00095E8030084E803003046BDE8704004B03E
:1094C000704700BF3C2605000268034B9A420CBF60
:1094D00008300020704700BF3C26050010B5044648
:1094E0000C2028F0B0FC024A0260047210BD00BFDC
:1094F0004426050013B56C4684E80300102028F0CC
:10950000A2FC0346054943F8081B024694E8030001
:1095100083E80300104602B010BD00BF4C260500D2
:1095200010B504460C2028F08EFC024A026004723A
:1095300010BD00BF5026050010B504460C2028F0D1
:1095400082FC024A0260047210BD00BF542605006E
:1095500082B038B504A9054681E80C0011481FF017
:109560006BF80446D0B16B68012B12D063B1022BAB
:1095700005D06FF08500BDE8384002B0704720F09C
:109580002CFD0028204604DDBDE8384002B020F064
:109590001DBDBDE8384002B020F011BD6FF00400E1
:1095A000E9E700BFEA4B050082B010B502A9044606
:1095B00081E80C000A481FF03FF858B16368022B9D
:1095C00006D120F00AFD0028CCBF002001206060F9
:1095D000002001E06FF00400BDE8104002B07047C9
:1095E000EA4B05002DE9F0410B4C227882B10B4D7E
:1095F000DFF82C80002642F20F77284641460136DC
:1096000028F0E1F80A2E45F8207C05F15805F4D140
:1096100000202070BDE8F081C20D0020F012002073
:109620001FA10400F0B5C269017E547C93B00023F1
:109630000CB1032942D0023901290693056805932C
:10964000D0E90467CDE9033325D853680393436811
:109650000493CDE90867079506AB0FCB0AAC84E805
:109660000F00CDE90C670B9594E80F000EAD85E86F
:109670000F0003981EF0E0FFD0B183689C68D4B15E
:1096800012AB13E903008DE8030003A895E80C0072
:10969000A04713B0F0BD9368D26803938368049326
:1096A000B018074B47EBE2711D60C3E90201D0E738
:1096B0006FF01500EDE76FF08500EAE71846E8E780
:1096C000401600202DE9F843037E002B64D13B4C6B
:1096D0002368834260D1C3691A7C032A25D8DFE856
:1096E00002F0020D1D5D04291FD8DFE801F01C0304
:1096F0001E051C00022217E0032215E0042914D8DD
:1097000001A252F821F000BF279702002B97020018
:10971000F5960200F9960200279702000329EBD084
:10972000042900D009B901220276027EA2B3596948
:1097300000290DDD456D6A1C0AD01833002253F84C
:10974000046BB54204D001329142F8D10123037673
:1097500000232360FFF766FF2668EEB9DFF860801C
:10976000DFF86090282758F8045BADB1236848F80B
:10977000046C23B14FF4A470002120F015F82846A2
:10978000FFF766FE10B92846FFF79EFE49462846B9
:10979000FFF75EFD013FE6D1BDE8F8830429C4D898
:1097A00001A252F821F000BF27970200F5960200AF
:1097B0002B97020027970200279702004C400020B9
:1097C000AC3F0020B026050082B02DE9F84908A979
:1097D00081E80C002B48099A00245821074601FB18
:1097E00004F31D58AA423AD1C5182033184427F073
:1097F000F5FFEB691968D5E9042312EB010B43EB84
:10980000E17C8046DDE90A0183457CEB010303DA54
:1098100003212846FFF756FF582606FB0476002151
:109820002846FFF74FFFF3695B7C53B1337E032B70
:1098300007D1284620F02EFC012333762846FFF777
:10984000F1FE284620F026FC18F1770F4FF0580360
:109850000DD103FB0473012283F8502002E0013490
:109860000A2CBCD1BDE8F849002002B07047634320
:10987000FA1842F20F71F9500023137682F8503033
:10988000F0E700BFD012002082B02DE9F84F0AA9FE
:10989000054681E80C0000681EF0CEFE33490C68D6
:1098A000A4B9D5E90189DDE90C23DDF82CE0DFF866
:1098B000C4C04FF0580A42F20F7B0AFB04F555F87A
:1098C0000C705F4507D001340A2CF6D1BDE8F84F83
:1098D000002002B0704747684CF805E00CEB05002B
:1098E00008602349C7610E684FF0000C80F818C06B
:1098F000B6454FF0FF3CC0E90189C0E90423C0F838
:1099000054C008D1D1E90289424573EB090302DA58
:109910000421FFF7D7FE174E582303FB0464216987
:109920003C680C4428F0F3F84FF47A77A0FB072347
:1099300007FB0133D10B41EA4341611A21EAE1718E
:109940004FF4004040F2E7384FF00009C0FB0189B6
:109950004FF47A72002340464946FCF7D1FB20358C
:1099600002460B4670191FF00FFCAFE74C40002079
:1099700040160020D01200202DE9F84F0646FFF7D0
:1099800067FD04463046002C72D0FFF761FD484D5C
:10999000D0F804800446002742F20F794FF0020A03
:1099A0002B6898450CD04B450AD0EB695B7C3BB1EA
:1099B0002B7E032B04D185F818A02846FFF732FE32
:1099C00001370A2F05F15805EAD13A4F386810B926
:1099D0000020BDE8F88F227A63681AB1426D013227
:1099E00008BF436502689A42F2D0C3691968D0E99A
:1099F0000423D4E9048912EB010A43EBE17BC2455D
:109A00007BEB090302DA0321FFF75CFE257ADFF81E
:109A1000A88085B1284A002352F8041B21BB48F8CE
:109A20002360237A3868002B14BF01210221FFF73D
:109A300049FE0220CDE7D4F804A0C146AB4659F850
:109A4000040B70B1FFF704FD30B143689A4503D1B0
:109A5000037A002B18BF05460BF1010BBBF1280F51
:109A6000EDD1002DD6D1B3E70133282BD4D1D8E7DF
:109A7000FFF72AFD0028ABD03046FFF725FD0D4B40
:109A80001B68002BA4D04368E03B072BA0D80378C9
:109A9000072B9DD1084B20461A4653F8041B11B9D9
:109AA00042F82060C5E701302828F6D1C1E700BFA1
:109AB000D01200204C400020AC3F0020014B196820
:109AC00020F07CBB50400020042810B50ED8094C73
:109AD0000121226801FA00F313439A42236003D064
:109AE00020F04DFB20F009FA002001E06FF0150096
:109AF00010BD00BF50400020042810B511D808B98F
:109B0000002010BD084C01232168834021EA030393
:109B100099422360F4D0002120F031FB20F0EDF9D0
:109B2000EEE76FF01500ECE7504000202DE9F04F14
:109B300015464FF41C721F464A430C2303FB0522B3
:109B4000394B134482460E4693E807008DB005ACAE
:109B5000DDE9168984E807001EF06EFD83460028C3
:109B60005FD0CDE90865CDE90A8905981EF064FD4E
:109B700083685B689C4653B10CAB13E903008DE826
:109B8000030008AB0CCB20466146884748B9DBF898
:109B900008301B78012B17D033B1022B28D06FF07F
:109BA00085000DB0BDE8F08FCDE90A8902970CABB6
:109BB00013E90300CDE908658DE8030008AB0CCB81
:109BC000204620F014FBECE7CDE90A8902970AAAA7
:109BD00092E80300CDE908658DE8030008ABBAF10F
:109BE000FF0F0CCBECD02146504620F0C3FBD8E74A
:109BF000CDE90A89CDE9086502970AAE96E8030027
:109C00008DE8030008AD95E80C002146002020F007
:109C1000B1FB029796E803008DE8030095E80C007D
:109C2000CEE70120BDE700BFDC2605002DE9F347A4
:109C3000DDE90A8982460D461646104F1AB1104BCF
:109C40001B6847F82130042457F82510E0B220F0B3
:109C5000B5FA38B914F1FF34F6D26FF0850002B0CE
:109C6000BDE8F087CDE9008933462A4621465046B3
:109C7000FFF75CFF0028F2DDECE700BF5440002056
:109C80005040002007B5094B09491A788DF800208B
:109C9000162302FB0313019302AB13E90300FFF742
:109CA00029FC03B05DF804EB20F027B9C870002050
:109CB000D170002001220249024802F0D5BB00BF4A
:109CC000C8700020734D050070B503788AB0044653
:109CD0000E4607AD032B20D8DFE803F002191B1D49
:109CE0001149284622F0CCFD63780493A3780393AE
:109CF000E378029323790193637900930595A3791F
:109D00000A4A1E21304620F0FCFC0AB070BD08490A
:109D1000E7E70849E5E70849E3E7084A0A21284652
:109D200020F0EFFCE0E700BF864D0500AF4D0500D9
:109D30008D4D0500944D05009E4D0500A84D050074
:109D40002DE9F0438BB00D46164626496A46044677
:109D5000984621F0D3FAF8B10098E8B10A2201A997
:109D600022F015FD019B1F7807BB162D1ED1C4B232
:109D7000042C1BD8DFF880906C432A4609EB0401C1
:109D80004046B047002813DD04F10F0002A9484403
:109D9000FFF79AFF00200BE06A461349204621F0A6
:109DA000ADFA78B1009B6BB9012D04D06FF01500AE
:109DB0000BB0BDE8F0830D492A464046B04700EAA3
:109DC000E070F5E76A460A49204621F097FA002834
:109DD000EED0009B002BDDD1072DE7D12A460549A7
:109DE000EBE700BF6A4D0500774D0500C870002005
:109DF000F94D0500CA700020D170002008B523F08D
:109E0000F0FD074B1978074B162202FB01310F3189
:109E1000072222F061FDB0FA80F0400908BD00BFC2
:109E2000C8700020D170002010B590B0044623F017
:109E3000D8FD6946FFF748FF08A9204606F034FB25
:109E40009DF82130012B09D105481FF033F9204638
:109E5000FFF7D4FF10B103481FF02CF910B010BD6C
:109E6000100300200003002007B50A4B18780A4BA6
:109E7000162202FB00306946002307220F300093B0
:109E8000CDF8033022F028FDB0FA80F0400903B08D
:109E90005DF804FBC8700020D17000202DE9F0416E
:109EA00007468CB08846162604A917FB06F40D4D0C
:109EB0004046FFF709FF04F10F00414607222844FE
:109EC00022F01AFD3A460849684603F065FB32461F
:109ED0002919684602F0C8FA04481FF0EBF80CB0E4
:109EE000BDE8F081D1700020D24D050000030020B4
:109EF00037B50F4B1C780F4B162202FB04340F347E
:109F000000250722694620460095CDF8035022F02F
:109F1000E3FC10B9002003B030BD2146284623F0F1
:109F20005EFD0028F6D023F078FC0120F3E700BFA7
:109F3000C8700020D1700020F0B58DB0FFF794FFFD
:109F4000054610B9FFF7D4FF00B90225224F3B7830
:109F500005EB0315112D3E4607DC022D2AD0102DEE
:109F600022D0002420460DB0F0BD202D1CD0122D93
:109F70004FF00004F6D105F099FA3C700446002831
:109F8000F0D1164E0FCE02AD0FC533682B60042200
:109F900000942346124902A805F056FA0446002808
:109FA000E0D102233B70DDE705F080FA0023044690
:109FB0003370D7E7094E0FCE07AC0FC43368236068
:109FC000002300930422064907A805F03DFA044641
:109FD0000028C7D13D70C5E7C970002030240500B6
:109FE0001033050030B591B0054623F0FAFC694600
:109FF0000446FFF769FE08A9284606F055FA9DF8C1
:10A000002130012B05D1FFF72FFF214618B904F0AD
:10A010005BFB11B030BD034B1878FFF73FFFFFF734
:10A020008BFFF6E7C870002030B591B00D4608A947
:10A03000044606F039FA9DF82130012B0BD1204659
:10A0400023F0CFFC6946FFF73FFE0B4B00221A704E
:10A050001DB1FFF771FF11B030BD0221204623F082
:10A0600061FCFFF769FF2046FFF7C8FE0028F2D029
:10A0700002481FF01FF8EEE7C9700020000300201F
:10A0800010B5002004F06CFC0446C0B902F038FBA7
:10A090000C4802F077FA044688B90B490B4827F0C0
:10A0A00092FB0B4802F018FA0A4802F015FA0A4827
:10A0B00006F084F9094806F085FCFFF73DFF2046CD
:10A0C00010BD00BFE8020020B59C02005016002021
:10A0D000EE4D0500F24D0500C802002020030020CF
:10A0E000034B1878034B162202FB00300F307047E9
:10A0F000C8700020D170002010B501460446072228
:10A10000044822F0F9FB214607220348BDE810402D
:10A1100002F0AAB9CA700020F54D050001481EF0F2
:10A12000C9BF00BF4803002013B5044683682C2133
:10A13000DB689847A8B9A3686A461B692C212046AA
:10A14000984770B9084C009B22789A4209D0D8B23F
:10A15000207001F069F820B92078FFF7E1F91FF0CD
:10A16000CCFE02B010BD00BF3F710020014B18684B
:10A17000FFF7DABF2441002013B50C481EF05CFA4B
:10A180000B4A106070B1FFF7CFFF044638B94FF4A7
:10A19000F01200230748CDE900231FF05BFD2046A5
:10A1A00002B010BD6FF01204F9E700BF0C4E0500BD
:10A1B00024410020680E002030B5064D0FCD87B039
:10A1C00001AC0FC42B680449236001A805F0D0FB43
:10A1D00007B030BD4424050099A2020007B5002352
:10A1E00000934FF400720523054906481EF068FFEE
:10A1F000054806F0E3F803B05DF804EBFFF7DCBFB9
:10A20000187200208016002058030020034B5B6862
:10A21000834214BF6FF015000020704728410020D2
:10A2200070B503788AB004460E4607AD032B20D8DC
:10A23000DFE803F002191B1D1149284622F020FB1C
:10A2400063780493A3780393E378029323790193CB
:10A25000637900930595A3790A4A1E21304620F0C0
:10A2600050FA0AB070BD0849E7E70849E5E7084930
:10A27000E3E7084A0A21284620F043FAE0E700BF56
:10A28000864D0500AF4D05008D4D0500944D050030
:10A290009E4D0500A84D050070B588B0164669466C
:10A2A00005461C46FFF7BCFF012E04D82A46034989
:10A2B000204622F058FF08B070BD00BFB5A60200CE
:10A2C00084B010B588B00AAC84E80F0040F6CD42E7
:10A2D000214600230F481EF0DBFB0446A8B110F115
:10A2E0000B0F0CD10022002303A90A481EF026FC04
:10A2F0000E9B00930AAB0FCBFFF7E2FF044620460C
:10A3000008B0BDE8104004B070470349034827F087
:10A310003DFAF4E70C10002088030020801600208E
:10A3200030B50C4D89B002AC0022002321462846EE
:10A330001EF004FC08B109B030BD08AB13E90300FE
:10A340008DE8030094E80F00FFF766F81FF0D5FDD5
:10A35000EAE700BF4C0F002070B5104E104C8AB0D9
:10A360000022002305A930461EF0E8FB08B10AB020
:10A3700070BD9DF814207C235343E518E35C022B49
:10A38000EED1CDE90100012300930DF11502132355
:10A39000B5F85810686825F0DAF8E1E70C100020ED
:10A3A0002841002008B5FFF731FF0028A3BF034B69
:10A3B0007C2202FB0030002008BD00BF28410020A5
:10A3C00010B5022188B0044623F0ACFA48B9204603
:10A3D000FFF7E8FF28B1038D2BB16946204606F050
:10A3E00063F808B010BD094A8260094AC2600122C0
:10A3F00002824FF6FF72C282037600F108014068C4
:10A4000008F050F90028E8D0EBE700BF144E050033
:10A4100015A402002DE9F041134686B006460F460A
:10A4200039B91822184622F072FA384606B0BDE84B
:10A43000F081FFF7B7FF04460028F7D0134BD0F8A0
:10A4400008C001AA03F11008964618685968154615
:10A4500003C5083343452A46F7D11B782B70714654
:10A46000604622F038FB054670B9094BE3603B8A31
:10A47000A060013323820323237604F108013046D0
:10A4800008F010F92846D1E70120CFE7582405004D
:10A4900069A502002DE9F04788B007461446FFF78A
:10A4A00081FF002859D024B90C81204608B0BDE8AE
:10A4B000F087631E00F15A020F3413F8015F12F89F
:10A4C000011B6940D173197802F8011CA342F4D131
:10A4D000DFF88C90DFF88CA000F16A0400264FF0C2
:10A4E000010800252378EB40DB072ED514F8101C5B
:10A4F00008FA05F31942384605EB060214BF01219C
:10A500000021FFF783FE8DF8080003928DF81010EC
:10A5100027F0FDFA4FF47A7CA0FB0C23CDE9002351
:10A52000019B0CFB01330193009BDA0B019B42EA78
:10A530004342DB0BCDE906230022002302A9484653
:10A540001EF0A6FA50461EF0B5FD0135082DC9D102
:10A550000836802E04F10104C3D10120A6E700BF14
:10A560004C0F0020780300202DE9F04107468AB007
:10A570000D46002962D0C968002961D0FFF712FF9B
:10A58000044600283AD02F4BD1F800C06A4603F1A8
:10A590001008964618685968164603C6083343459E
:10A5A0003246F7D11B7833707146604622F093FA39
:10A5B00038BB2B8AA060023323820323237604F165
:10A5C00040032363E38AA385284624F04CFD1E4BF9
:10A5D000236201232085A3863846FFF7E3FE20B1DE
:10A5E00000F12001384608F065FAB4F8580018B1B7
:10A5F000208D003018BF012080F001000AB0BDE8B6
:10A60000F081EB681F68114B05AA03F1100E944608
:10A6100018685968164603C6083373453246F7D1A1
:10A620001B7833706146384622F055FA0028DCD199
:10A63000284624F018FDA4F85800D6E70846DDE7C0
:10A640000846DBE76924050095A402007A2405008A
:10A6500038B50546B0B90D4C23789BB1606810B190
:10A6600023F0DBF865600023094923701A4601F8DE
:10A67000012B0133102BCA73F9D12285A4F858207D
:10A68000002038BD6FF01500FBE700BF2841002017
:10A690008241002038B5064D2C7834B92046FFF7AA
:10A6A000D7FF01232B70204638BD6FF00B00FBE76E
:10A6B000284100202DE9F0430378063B012BA7B089
:10A6C00005460E4603D9012027B0BDE8F083447843
:10A6D00014F00F04F7D16B789C42F4DA6968102209
:10A6E000214403A822F021FA78B33D4B08AA03F1D4
:10A6F000100E90467746186859689446ACE80300F7
:10A70000083373456246F6D11B788CF80030414619
:10A7100003A822F0E0F9D0B1252212A903A803F082
:10A7200019FA0DAA2E4B9646186859689446ACE85B
:10A7300003000833BB426246F6D11B788CF8003028
:10A7400025221CA9704603F005FA1034C3E73046F1
:10A75000FFF7D2FC05F08CF907460028F5D1FFF78A
:10A7600099FF7C245FFA80F8314638461D4FDFF8A8
:10A77000789023F034F904FB08F43D19686050B177
:10A78000FFF71EFED9F80000019001A9686823F0C8
:10A790002AF9002098E74A4612AB52F8040F516894
:10A7A00003C309F10C030FCB1CAD85E80F00231D7B
:10A7B0003B4412AA2946304605F0A4FE08B1FFF733
:10A7C000FBFC7C2303FB0873D9F80000029002A96C
:10A7D000586823F008F90028DBD0FFF7EDFCD8E734
:10A7E00058240500284100208C24050008B5FFF7F7
:10A7F0000DFD002805DB7C235843024B02221A542E
:10A80000002008BD28410020024B187002481EF0AD
:10A8100051BC00BFCA0D00209803002010B50A48A3
:10A820000A4C1DF009FF206058B1094B09494C2220
:10A8300019F0C0FF206826F00DF8074801F024FB4E
:10A8400008B16FF0150010BD714E0500A441002045
:10A8500030330500254E050009A8020001481EF00E
:10A86000BDBA00BF5410002038B5144B1A780B2A1B
:10A8700004460D460BD80123934040F613021342C1
:10A8800019D19B0603D5BDE8384001F0C7BA4FF493
:10A89000767200230A481EF0C7FA0A4821460023B0
:10A8A0002A46006825F0E0FF044610B104481EF077
:10A8B00095FA204638BD6FF01204FAE7CA0D002061
:10A8C00054100020A4410020084B1B780B2B09D802
:10A8D000DFE803F0060608080A0808080808080A5E
:10A8E000012070470220704700207047CA0D0020E9
:10A8F0001FB54C240294044C0194BDF818400094F8
:10A9000024F09AFB04B010BD8F4E050007B5064B2E
:10A9100000934FF400720523044905481EF0D0FB54
:10A92000002003B05DF804FB7034050018740020AB
:10A9300020170020F0B5134E134F89B000220023DA
:10A94000694630461EF0FAF8054608B109B0F0BD78
:10A950001FF0B2FD04460028F8D01822294602A8AC
:10A9600021F0D5FF08230DEB030120460397CDF816
:10A9700010D0ADF8143007F02BFD204622F04DFF2B
:10A98000DCE700BFAC0F0020A83305002DE9F04143
:10A99000134FDFF850808AB001AE00220023314609
:10A9A00038461EF0CBF8054610B10AB0BDE8F0817C
:10A9B0001FF082FD04460028F7D01822294604A87B
:10A9C00021F0A5FF0C2304A92046CDE90586ADF8AA
:10A9D0001C3007F0FDFC204622F01FFFDDE700BF22
:10A9E0007C0F00200C34050037B5054640F6CD42FB
:10A9F000014600230C481EF04BF8044678B110F1D4
:10AA00000B0F09D100220023694607481EF096F873
:10AA10002846FFF7E9FF0446204603B030BD03494E
:10AA2000034826F0B3FEF7E7AC0F002078040020BF
:10AA30002017002030B5054685B040F6CD420146CE
:10AA400000230D481EF024F8044678B110F10B0FD6
:10AA500009D10022002301A907481EF06FF82846FB
:10AA6000FFF7E8FF0446204605B030BD034904481F
:10AA700026F08CFEF7E700BF7C0F00206804002062
:10AA80002017002008B5FEF7ABFB094B1B7823B15C
:10AA9000012B07D06FF0850008BD0921BDE80840F3
:10AAA000FFF7E2BE0130BDE80840FFF79DBF00BFE1
:10AAB000D30D002008B5FEF797FB094B1B7823B197
:10AAC000012B07D06FF0850008BD0D21BDE80840BF
:10AAD000FFF7CABE0130BDE80840FFF7ABBF00BFBB
:10AAE000D30D002001220249024801F0BDBC00BF85
:10AAF00041710020DB4E050010B501F001FE074852
:10AB000001F040FD044630B90548064926F05BFED9
:10AB1000054801F0E1FC204610BD00BF880400207C
:10AB2000C0170020E5AA0200EF4E050038B5FFF778
:10AB3000DFF9C8B1FFF7C8FE02281BD10F4B1C7804
:10AB40000F4D2B78A34217D0FEF712FBFEF740FB08
:10AB5000FFF798FFFFF7AEFF20462C70FEF7BEFC14
:10AB6000BDE838401FF0C9B9FFF7AEFE841E18BF1C
:10AB70000124E5E70124E3E738BD00BF417100206F
:10AB8000D30D002070B50C4615460A4900221E461A
:10AB900020F0B4FB50B1012C09D1224606493046C1
:10ABA000A847002802DDFFF7C1FF002070BD6FF04D
:10ABB0001500FBE7E54E0500417100200148FEF756
:10ABC00021BA00BFF94E050010B5094C0A44914264
:10ABD00000D110BD11F8013B43401809205C80EA08
:10ABE0000310C3B21809205C80EA0310C0B2EEE77C
:10ABF000FF4E05000B6801330B60014B1B681847C3
:10AC0000A004002007B50023019302460B46034829
:10AC100001A900F0F7F803B05DF804FBF5AB020002
:10AC200030B585B0CDE901010446002501A90548EC
:10AC3000039500F0E7F8DDE902309842B8BF2554EB
:10AC400005B030BDC3A604002DE9F84FB0F8189048
:10AC500019F0080804460DD001290CBF49F010096D
:10AC600049F02009A0F8189082F31188BFF36F8F84
:10AC7000BDE8F88F09F00709022907D120461FF027
:10AC80004DFD0028F0D00128238B4AD16769238B22
:10AC9000002F15DA2568C4E9008823F0070343F084
:10ACA000010323830026238B03F0070ACA4502D041
:10ACB000A168002956D10DB9002E6DD0002152E0B7
:10ACC00003F00701481F01281CD823F007030629B9
:10ACD00025689BB2C4E900880AD13DB1618B284642
:10ACE0000068013189B20028FAD1618343F0020380
:10ACF000238320461FF012FD0028D3D0238B43F07E
:10AD00002003CEE704290AD123F0070399B2218357
:10AD100020461FF003FD10B141F0200121830025E2
:10AD2000C0E7032809D1216923F007030E6843F027
:10AD30000603238300252F46B5E7042806D12169A1
:10AD400023F007034E6843F00403F2E7052806D119
:10AD5000216923F007038E6843F00503E9E7002526
:10AD60002E46E8E7012143F00803238382F311888C
:10AD7000BFF36F8FF9B985BB16B121492046B047A3
:10AD80004FF02003EFF3118283F31288BFF36F8F2C
:10AD9000238B23F008032383238BD90627D523F0A5
:10ADA000100323830121B4F8189009F00709002942
:10ADB0007FF462AF58E7A1680029DCD0D1F8009099
:10ADC000D1F804B03B4652462046D847B9F1000FAF
:10ADD000D1D04946D9F80090F2E7D5F8009029463D
:10ADE0003B46524620461FF0B5FC4D46C3E713F0E4
:10ADF00020011EBF23F0200323830221D3E700BFDD
:10AE000081A704002DE9F04F8DB01F46531E00901E
:10AE1000894601934FF00008019B5878252803F1DB
:10AE200001042AD100224FF0FF3603F1020C114633
:10AE3000029234464FF00A0E9CF80000CDF804C090
:10AE400039280CF1010C45D8312880F099802A2846
:10AE500000F09F8025D8202828D018D8002800F09E
:10AE60009A814946009B25209847019B49461878BE
:10AE7000009B984708F10208CEE7002800F08B817C
:10AE80004946009B984708F101080194C4E723282C
:10AE90000CD02528E5D14946009B984708F10108C8
:10AEA000BAE72D287FD003D82B28DAD10246C3E792
:10AEB0002E285FD03028D4D1002C80F26881002E5B
:10AEC00060DA029B002B00F0608100240EFB04047A
:10AED000303CB1E76C2803D16C2946D14C21ABE75B
:10AEE00026D8642813D00ED8582800F0ED806328A7
:10AEF000B7D13D464FF0010B55F8043B8DF81830A3
:10AF00000DF1180A28E0682850D06928A9D17A29BB
:10AF100050D13B68752807F104059A4640F09A80A5
:10AF20004FF0000B202A40F09880013C9C4F57E0E6
:10AF30007528ECD013D8702800F09B80732890D12E
:10AF40003D4655F804AB504621F0A4FC002E834644
:10AF500002DBB042A8BFB346924F00266DE07828CE
:10AF600000F0B2807A287FF47CAF00297FF479AFBB
:10AF7000014661E7029B03F0FE03029300265BE7B4
:10AF8000002E03DB0EFB0606303E55E724EAE47490
:10AF90009CE7002E57F8043B01DB1E464CE71C1EC5
:10AFA000BFF64AAF64420223029345E76829DCD129
:10AFB000482141E76C29ACD04C29AAD1FD1D25F0D0
:10AFC00007057528F5E802ABACD0BAF1000F7BF1AC
:10AFD0000003A7DADAF1000A734F6BEB4B0B013C6D
:10AFE0000BAB049300230393039B013B05930A22BD
:10AFF000002350465946FBF783F8049B303203F890
:10B000000129504604930A2200235946FBF778F899
:10B01000BBF1000F08BFBAF10A0F25D2039BC3F1A1
:10B02000010B0CABA3EB0B0A002EAAF1030A04DA06
:10B03000029B13F0010F18BF2646A6EB0B03002B53
:10B040000393029BD4BFA4EB0B04A41B9B0766D401
:10B0500026465DE04FEAE37BB7E72B2A06BF04F103
:10B06000FF34524F4F4FBBE7059B039382468B46FD
:10B07000BAE73D4655F8042B002A40D04C4F924683
:10B080004FF0000B023C00F06000A0F1390E0DF112
:10B090002C0C00230AF00F02092A88BF72443032B8
:10B0A000BBF1000F0CF8012908BFBAF1100F4FEAED
:10B0B0001A1203F1FF3042EA0B724FEA1B11AED3B2
:10B0C000034692468B46E5E76C2906D13D464FF094
:10B0D000000B55F8043B9A4606E04C29F6D1FD1DBD
:10B0E00025F00705F5E802AB232A06D1304B314F96
:10B0F00010F0200F18BF1F46C4E72A4FC3E74FF0D8
:10B10000050BDFF8B4A027E749462020009B9847AD
:10B11000013EF9D524EAE472013C9044A41AA8EB5C
:10B12000070602E04946009B984706EB070817F818
:10B13000010B0028F6D1039E013E16D5039B5E4607
:10B1400023EAE377013E15D5BBF1000FACBFBB444A
:10B1500007F1000B2646013E12D5002CACBF5C4423
:10B160000BF10004A0442F4656E64946009B3020D0
:10B170009847E1E749461AF8010B009B9847E1E739
:10B180004946009B20209847E5E701230CE7002E65
:10B19000BFF6F8AE9AE640460DB0BDE8F08F00BFAE
:10B1A000114F0500494F05000F4F0500134F0500D3
:10B1B000154F0500184F05001B4F050008B54FF04F
:10B1C0002002EFF3118382F31288BFF36F8F02F036
:10B1D00013FA03481FF088FA01F0D2FEFCE700BF23
:10B1E000214F05001FB507240294044C0194BDF8BB
:10B1F0001840009423F020FF04B010BDD40D0020AF
:10B2000010B5084C86B024788DF8174001240294BC
:10B210000DF117040194BDF82040009423F00CFFB9
:10B2200006B010BDDB0D002000B589B064288DF894
:10B23000070019D80E4B18221870002102A821F01F
:10B2400066FB0C4B03930DF10703049302A9012342
:10B250000020ADF8143007F0BBF810F1800F08BFE4
:10B26000002009B05DF804FB6FF01500F9E700BF9E
:10B27000DB0D0020203505002DE9F7438846074601
:10B280000821C06A144E1FF0AFFDD8F80040241A00
:10B290008146C8F8004004EA0605A54203D3002011
:10B2A00003B0BDE8F08308236A46214638461FF004
:10B2B0001DFD0028F4D1694638461FF09FFD40B1BE
:10B2C000BDF80230BDF80420C8F8004035401344F2
:10B2D0001D44A4EB0904E0E70000FFFF2DE9F04F57
:10B2E000044689B00D4600F11407384626F0F1F8FF
:10B2F00028461DF0A1F9A062002800F01F81836894
:10B30000DB689847E06228B96FF01505284609B058
:10B31000BDE8F08FA06A8368DB6898470368013B4B
:10B320001F2BF1D8A06A216805AA25F081FC00280E
:10B33000EAD1A389002BE7D0069AB3FBF2F502FB12
:10B340001535002DE0D1E389012BDDD9E36A0095A5
:10B3500093F804804FF0FF324FF0FF3338461DF072
:10B3600047FC0821E06A1FF03FFDA9460646E38935
:10B370001FFA85FA534544D8E3894B4500F0D38042
:10B3800053450BD1009908234246891B20461FF0E4
:10B39000E4FC18B96946E0891FF04AFD6946204679
:10B3A000FFF76AFF0546002840F0BF80009B794AFE
:10B3B00063601340A3609146D4E9011399420ED310
:10B3C000082301AA20461FF091FCC0B901AB13F875
:10B3D000012B904540F0C28001300828F7D1636806
:10B3E000E0891B0C1B04694600931FF021FDA38913
:10B3F0000099424620461FF0B0FC002826DA054698
:10B4000093E0A1892B04891B13FA81F1424608239A
:10B41000204600911FF0A1FC78B16946E0891FF039
:10B4200007FD09F1010908234246009920461FFA49
:10B4300089F91FF092FC00289ED0013597E7BBF1F7
:10B44000000F00F0A3806FF01C056EE046D063682B
:10B45000334400934FF6FF780099A3898AB29B1B6F
:10B460009A4216D3616820461FF09BFC0028C6D183
:10B470006268484902EA0103A2891344A3EB460328
:10B4800063600B40A36020461FF0A4FD002840D05D
:10B49000B5E7082303AA20461FF028FC0028AED1F8
:10B4A00003A920461FF0AAFC38B1BDF80C30434573
:10B4B00003D1BDF81030002B43D0009B33440093E0
:10B4C000CAE75B1A424620461FF047FC002896DB7D
:10B4D00008D0E26AA36812681344A360D4E901317A
:10B4E0008B42EED86168A38901EB46029A42CDD126
:10B4F000DFF8A080A36801EA08029342C6D0204684
:10B500001FF04FFC00287FF47AAF636803EA08035A
:10B51000A360A389A288A3EB4606B24205D12046C8
:10B520001FF0F7FC6BE76FF02C0538461DF0DEFBD3
:10B53000002D7FF4EBAE01232374E7E66FF00505E1
:10B54000E4E66368E0891B0C1B04694600931FF066
:10B550006FFC009920461FF024FC97E701A92046C4
:10B560001FF04CFCD4F804A080B1009ABDF808B0DC
:10B57000BDF80610E06A02EA0902A26059441FF011
:10B5800033FC10445045A0603FF459AFAAEB0603CA
:10B59000636011E70000FFFF2DE9F04F1E46037CBA
:10B5A00089B0044689469046002B00F0C080C26AEC
:10B5B000082110461FF018FC3146824610461FF045
:10B5C00013FCA389A3EB8A039E42074600F2B280D4
:10B5D0001EB1B8F1000F00F0AD806368039304AAB8
:10B5E00003A92046DDF80CB01FF0A8FC0546002892
:10B5F00066D1BDF810304B4505D06268039B9A4276
:10B60000EDD1E6B95CE004A920461FF0F7FB002865
:10B61000F3D0BDF8143086B19E4210D1BDF81200AF
:10B620004FEA1B41090401443346424620461FF0BD
:10B630006BFB002803DC054642E0002B40D0002FC6
:10B6400042D104F1140A4FF0FF334FF0FF3250465D
:10B65000DFF8ECB01DF0CCFA0023E289934263D00E
:10B66000D4E901217818824231D3FF2306A8ADF82E
:10B670001890ADF81A10ADF81C608DF81E301FF050
:10B68000AAFB36B133464246A16820461FF0F8FBBC
:10B6900005463146E06A1FF0A7FBA3681844A06086
:10B6A000002D4AD106A920461FF022FC054600289D
:10B6B00043D13246019250461DF018FB019A1546BF
:10B6C000284609B0BDE8F08F5744BFB2B9E708215A
:10B6D000E06A01931FF088FB4FF6FF71ADF8181078
:10B6E0000021ADF81C101118ADF81A10A18902EA5A
:10B6F0000B020A44121A626006A81FF06CFB06A92E
:10B7000020461FF0F5FB211DE0891FF091FB6268C8
:10B7100002EA0B02A26020461FF05CFC02460028F1
:10B72000C8D1019B013398E76FF01B02C2E76FF0AD
:10B730000C05C5E76FF01505C2E72A46BAE700BF5A
:10B740000000FFFF0C4BF0B45F6A0C4E0C4BB34291
:10B7500003D36FF08500F0BC70475D68BD4209D32C
:10B760001C693CB195F802C00579AC4502D123466D
:10B77000F0BC18472433EAE7A84100209C120020BF
:10B78000781200202DE9F047134CDFF85080DFF8E5
:10B79000509005460E461746444503D36FF085008A
:10B7A000BDE8F0876268D9F824309A4212D3A369C1
:10B7B00083B190782979884205D13A4631462846A6
:10B7C000BDE8F04718475279012A03D13A4631467D
:10B7D000284698472434DFE7781200209C12002086
:10B7E000A84100202DE9F0410A4C0B4D06460F46BA
:10B7F0009046AC4202D36FF0850009E063690BB953
:10B800002434F6E742463946304698470028F7D1B7
:10B81000BDE8F081781200209C12002007B58378E3
:10B820008DF800300379427943EA0223ADF8023003
:10B83000C378684603F003038DF8043019F07AFBEF
:10B8400010F1780F04D018B1002003B05DF804FBAC
:10B850009DF8000019F0F4FB10F1780F01D00028DA
:10B86000F2D1024B012083F8B900EEE7A841002095
:10B8700008220021014821F04AB800BF634200209D
:10B8800070B50B4B0B4CA34201D3002070BD196A5D
:10B890001E7F00220439D5B2AE4201D82433F2E72C
:10B8A000013211F832508542F5D10120EEE700BF98
:10B8B000781200209C12002073B5C4B263060E46B5
:10B8C0008DF8074007D02046FFF7DAFF88B10F4B0D
:10B8D00093F8BA0068B10D4D204666B119F04CFBE3
:10B8E000EB690BB9012004E008200DF1070198472E
:10B8F000304602B070BD19F067FBEB69002BF1D048
:10B900000DF1070109209847ECE700BFA84100208E
:10B9100004282DE9F04704460F46DFF88C800ED14D
:10B92000FFF7A6FF1E4B93F8B92099465AB100F0D5
:10B9300007FD042C01D0012C05D11A4D16E0052875
:10B94000F0D00128EED0174D45451ED3144B1B6A8D
:10B950001BB339462046BDE8F0471847D5F820A06C
:10B9600000262A7FF3B29A4203D824354545F5D301
:10B9700007E00AEBC3030136187919F08BFB0028A6
:10B98000EFDA002389F8B930DDE7EB681BB13A46FE
:10B990002146284698472435D6E7BDE8F08700BF02
:10B9A000A8410020781200209C1200202DE9F047C9
:10B9B000AD4EB36905460C4617467BB92978C1F3ED
:10B9C0000400C3B2012B00F0A58040B258B1022B95
:10B9D00000F010816FF01500BDE8F087984700284F
:10B9E000ECD10020F8E709063A686B782FD5062BD2
:10B9F00010D0082B25D0002BECD1012153701170F1
:10BA000096F8C310002918BF022343F001031370F6
:10BA100002231AE069880A0A131F012BDAD9072AC0
:10BA2000D8D8736AC9B21D78002DD3D05E789642FB
:10BA300003D1814200F0108101302B44F3E71B78E1
:10BA40000FE196F8BA30137001232360C4E7013B7D
:10BA5000082BBFD801A252F823F000BFF7BA0200AA
:10BA6000D5B9020007BB0200D5B9020081BA0200B5
:10BA7000D5B90200D5B90200D5B902008DBA0200CD
:10BA8000A87819F045FA0028ABD0A3E76C8854B128
:10BA9000FF27746A0020B94694F80080B8F1000FBF
:10BAA0000DD1002896D0FFF7E3FE6B8886F8BA30F8
:10BAB000F369002B95D06D490320984791E763788F
:10BAC000042B0BD0052B0CD0022B04D167796B888B
:10BAD000BB4208BF012023781C44DDE794F80390A3
