:020000022000DC
:1060000030940020C5CE020075C1040099CE020074
:1060100099CE020099CE020099CE02000000000045
:1060200000000000000000000000000009CC020099
:1060300099CE020000000000C1CB020099CE020000
:1060400085CC02008505040085CC020085CC0200C9
:1060500085CC020085CC020085CC020085CC0200F4
:1060600085CC020085CC020085CC020085CC0200E4
:1060700085CC020085CC020085CC020085CC0200D4
:1060800085CC020085CC020085CC020085CC0200C4
:1060900085CC020085CC020085CC020085CC0200B4
:1060A00085CC020085CC020085CC020085CC0200A4
:1060B00085CC020085CC020085CC020085CC020094
:1060C00085CC020085CC020085CC020085CC020084
:1060D00085CC020085CC020085CC020085CC020074
:1060E00085CC020085CC020085CC020085CC020064
:1060F00085CC020085CC020085CC020085CC020054
:1061000053B94AB9002908BF00281CBF4FF0FF311E
:106110004FF0FF3000F074B9ADF1080C6DE904CE1A
:1061200000F006F8DDF804E0DDE9022304B0704772
:106130002DE9F047089E04468846002B40F08580F4
:106140008A42154648D9B2FA82F24AB1C2F1200712
:1061500001FA02F320FA07F7954047EA0308944052
:106160004FEA154E230CB8FBFEF71FFA85FC0EFB19
:10617000178843EA084307FB0CF1994209D9EB1849
:1061800007F1FF3080F0E380994240F2E080023F67
:106190002B445B1AA4B2B3FBFEF00EFB103344EAAF
:1061A000034400FB0CFCA44509D92C1900F1FF3372
:1061B00080F0CB80A44540F2C88002382C4440EAED
:1061C0000740A4EB0C0400271EB1D4400023C6E90D
:1061D00000433946BDE8F087002A53D0B2FA82F274
:1061E000002A40F0B680491B4FEA154E1FFA85F889
:1061F0000127B1FBFEFC230C0EFB1C1143EA0143FB
:1062000008FB0CF1994207D9EB180CF1FF3002D2D0
:10621000994200F2EC808446591AA3B2B1FBFEF019
:106220000EFB101443EA044408FB00F8A04507D90C
:106230002C1900F1FF3302D2A04500F2DC80184691
:10624000A4EB080440EA0C40BEE78B4208D9002EBC
:1062500078D00027C6E9000138463946BDE8F08706
:10626000B3FA83F77FB98B4202D3824200F2BD803A
:10627000841A61EB030301209846002EA9D0C6E9D9
:106280000048A6E7FFDEC7F12005BB4022FA05FC67
:106290004CEA030C01FA07F420FA05F821FA05F399
:1062A0004FEA1C4E48EA0404B3FBFEF9210C0EFB36
:1062B00019331FFA8CF841EA034309FB08FA9A459F
:1062C00002FA07F200FA07F10BD91CEB030309F1FC
:1062D000FF3080F088809A4540F28580A9F102095C
:1062E0006344A3EB0A03A4B2B3FBFEF00EFB10332E
:1062F00044EA034400FB08F8A04508D91CEB040459
:1063000000F1FF336BD2A04569D90238644440EAFA
:106310000940A4EB0804A0FB02894C45C6464B4645
:1063200054D351D0002E69D0B1EB0E0264EB0304BC
:1063300004FA05F522FA07F3FC401D43C6E90054B0
:10634000002746E73746304643E7184637E7074613
:106350001FE7C2F1200320FA03F7954001FA02F08B
:1063600021FA03F34FEA154E3843010CB3FBFEF755
:106370001FFA85F80EFB173341EA034107FB08F3C8
:106380008B4204FA02F407D9691807F1FF3C28D2BE
:106390008B4226D9023F2944CB1A81B2B3FBFEF0CF
:1063A0000EFB103341EA034100FB08F38B4207D98F
:1063B000691800F1FF3C10D28B420ED902382944F3
:1063C000C91A40EA074714E74145ABD2B8EB020EC1
:1063D00069EB0C0201381346A4E76046F0E7184663
:1063E00095E76746D8E781467BE7384645E7ACF155
:1063F000020C2B4410E702382C4421E73746E8E62C
:10640000704700BF0000000073B5404DD5F854310F
:10641000996811F0010123D101AA40F6034007F069
:1064200057FC044600286ED1019B9B681B78A3B9DA
:1064300008F0D8FEBFF35B8F2B4653F8CC2FBFF389
:106440005B8F02F00502BFF35B8F53E8001F43E848
:1064500000200028F9D1BFF35B8F01981DF004FEE6
:1064600001AA002141F2030007F032FC0446002893
:1064700049D1019B264899680822013125F036FF51
:1064800001981DF0F1FD214601AA41F2010007F03B
:106490001FFC0446002836D1019883685A7885F895
:1064A0006820D9789A7842EA0122A5F86A201A79F8
:1064B00085F86920197ADA7942EA0122A5F86C2078
:1064C0005A799B7942EA0323A5F86E301DF0CCFD82
:1064D000214601AA41F2020007F0FAFB044690B9F6
:1064E000019B0C4899684022013125F0FFFE0948C4
:1064F00025F0B1FF01981DF0B7FD95F874305806EE
:106500000AD46FF01204204602B070BD00000020D3
:106510007000002078000020214601AA42F203000A
:1065200007F0D6FB04460028EDD1019BBA489968D4
:106530000822013125F0DAFE01981DF095FD214673
:1065400001AA42F2020007F0C3FB04460028DAD198
:10655000019B9B68B3F80120A5F8FC2091B221B102
:10656000DA78AE4811462AF082FD01981DF07CFDD4
:1065700095F8744014F0200400F0218195F89430CF
:10658000190711D501AA002142F21C0007F0A0FB57
:1065900004460028B7D10198836853F8012F5B683F
:1065A000C5E936231DF060FD95F8D0309A0623D555
:1065B0000DF10201684626F0B9F904460028A2D17F
:1065C000042142F2240007F029FB0646002800F0CF
:1065D000FD800421083029F0DEFDBDF80030038085
:1065E000BDF8023043802246314642F2240007F0D3
:1065F0006FFB0446002886D195F8D0305B0610D595
:1066000001AA002142F22A0007F062FB044600289A
:106610007FF479AF019883685B7885F818311DF0B5
:1066200023FD082142F2010007F0F8FA0446002891
:1066300000F0CC800821084429F0ADFD95F8D01079
:1066400011F0400F40F2022308BF03238E074CBF16
:1066500043F02C0343F00C030246880695F8D10062
:1066600048BF43F0400310F0090F18BF43F4006324
:10667000CE0795F89A1001F0060148BF43F01003C9
:10668000062908BF43F4C0731846002126F08FF88E
:106690002146002242F2010007F01AFB04460028BE
:1066A0007FF431AF95F87430B5F8FC10980600F11E
:1066B000A280D9B901AA41F2050007F009FB0446FE
:1066C00000287FF420AFB5F8FC3063B9019B9B68CC
:1066D0005A78997842EA0122A5F8FC209A884F4816
:1066E00011462AF0C4FC01981DF0BEFC082140F6BA
:1066F000014007F093FA0446002867D008210844B7
:1067000029F049FD95F8D030D907024679D540A146
:10671000D1E9000126F04BF82146002240F6014065
:1067200007F0D6FA044600287FF4EDAE014601AA30
:106730004FF6014007F0CCFA044648BB01981DF023
:1067400093FC214601AA4FF6024007F0C1FA044625
:10675000F0B9019B324899680222013125F0C6FD4B
:1067600001981DF081FC95F8B9305B0710D501AA9E
:1067700021464FF6034007F0ABFA48B9019B294880
:1067800099680122114425F0B1FD01981DF06CFCBF
:1067900026F018FB044600287FF4B5AE09F09CFEF5
:1067A000044600287FF4AFAEEB79002B3FF4ABAE8C
:1067B00004211D4825F005FF07F028FEA3E602216D
:1067C00040F66D4007F02AFA064610B96FF06804EB
:1067D00099E60221083029F0DEFC012344700370A1
:1067E0002246314640F66D4007F072FA0446002812
:1067F0003FF4C4AE87E600297FF478AF6FF004045D
:1068000081E60A484FF0005184E700BFAFF30080F3
:106810009088000200800020D000002000010020AD
:10682000B9000020B8000020CC0000201088000231
:106830002DE9F0410F46D0E90B15866A4C1930342A
:10684000A642904618D8144D11A3D3E90023A1FB0A
:106850000501FFF755FCA41B20F07F4038600CA316
:10686000D3E90023A5FB0401FFF74AFC20F07F4099
:10687000C8F80000BDE8F081074C05A3D3E9002368
:10688000A6FB0401FFF73CFC3035E5E7AFF30080E1
:106890008D49FD1A0700000000CA9A3B0000000065
:1068A0002DE9F04F6A4C94F86AA095B00AF0010AFD
:1068B00000284BD0BAF1000F40F0C38094F82500B7
:1068C000FF2300F0030084F8263019F089F894F8CB
:1068D0006A0042072BD494F8292094F8353004EB51
:1068E000820204EB8303D76AD3F8388087B1394634
:1068F000574812F023FC3B785B0605D506210DF0C6
:10690000EDFA002800F06D824146514812F016FC65
:106910003B7813F00E0F40F0AF81236A002B00F09C
:10692000A5804FF00C0A504615B0BDE8F08FC0F3BB
:10693000C000524604F16B0119F0EAF9FF2884F80F
:106940002600C8D0504619F091F8C4E7BAF1000FFC
:1069500077D0236A53B193F8202042F0020283F8E3
:106960002020236A93F82030D807DAD4384811F071
:1069700029FA84420CD040F6FF13364A364937488C
:1069800023F0ACFB404080F311884FF0030002DF9E
:1069900094F82430D9070FAD0ED502220F920321AF
:1069A00000952F4B012200200EF0E4FE294611F045
:1069B000E1F9002840F05C8202210A460F9100951F
:1069C0000321274B00200EF0D5FE294611F0D2F905
:1069D000002840F02782234811F030FA70B1783057
:1069E0000CD040F61E231B4A1F491C4823F076FB9F
:1069F000404080F311884FF0030002DF144811F08B
:106A0000EDF984420CD040F62123124A1249134872
:106A100023F064FB404080F311884FF0030002DF55
:106A2000236A0BB112F068F994F86A3000206FF312
:106A3000000384F86A3012F073FD8246002800F0EB
:106A4000CD814FF0000A504615B0BDE8F08F00BF71
:106A5000BC510020C4300500CC310500502D05008C
:106A600089720300D8510020D831050011F0CCF80C
:106A70008346002800F0F08111F0D2F80A90002837
:106A800000F0F08113F0C4F90546002800F0E7811A
:106A90004FF6FF73406F2B8505F11C030D93002803
:106AA00000F0D68105F1680205F164010DF022FACB
:106AB000D34EB5F8603095F8392095F87A0095F8FE
:106AC0003C1095F8D6C0DFF850E3C5F85CE03340E1
:106AD00043F48873002643F0010302F03F0266F39B
:106AE000000C4FF01B1E62F07F0220F0070021F027
:106AF0000701A5F860304FF006034FF6FF7985F8DF
:106B0000D6C0C5F858E085F8392085F87A0085F8B0
:106B10003C10A5F8C03006226FF0FF030DF14101D3
:106B20006E67A5F87860EE852E6385F83B60C5E951
:106B300012662E65A5F8C460A5F8C860A5F8D060F7
:106B4000A5F8CC6005F1D7001093ADF844908DF80E
:106B5000469025F0CBFB95F8D610ADF84C9066F337
:106B600041016FF0FF03062285F8D61005F1DD0024
:106B70000DF1490112938DF84E9025F0B7FB95F871
:106B8000E430A5F8F06023F0070385F8E43085F8D9
:106B9000F260C5F81461A5F81861A5F8306110F02D
:106BA0000DFB95F896E195F8BEC195F84A9195F8D8
:106BB0007A2095F87631A5F8486166F3451E66F3AC
:106BC000C30C22F0180223F00703C5E94E0129F097
:106BD00003090021002085F896E185F8BEC1C5E9CA
:106BE000500185F87A2085F87631A5F8506185F84E
:106BF0005361A5F8746185F8E560A5F89461C5F85E
:106C0000EC60A5F8BC61A5F8C861C5F854B185F879
:106C10004A9113F077FCA5F8D20013F079FCD5F86F
:106C2000CC21784BA5F8D4001340C5F8CC3113F033
:106C300075FC95F8D03160F3020385F8D03113F07C
:106C400073FC95F8D0310A9A626660F3C5030D9A19
:106C5000C4F860B02262C5F8E461C5E97766C5E9A9
:106C6000756685F8D0312E70C5E90566ED611AF0BC
:106C7000C7F9002840F0B88094F824300121C3F30C
:106C800042030FA88DF83C300DF0A6FA30B9236A04
:106C9000002B3FF446AE12F02FF842E698F80110B0
:106CA0000246384611F05EFE574BB4F8686080B279
:106CB0000025A0FB03013123C4E9023525704EA352
:106CC000D3E90023C4E905556560FFF719FA20618F
:106CD0000EF0F8FD80463EB93D7805F00F05A5F1B0
:106CE0000105B5FA85F56D0994F82430276965F337
:106CF000000313F0010584F824302CD0DFF81C9138
:106D0000424B0593002002250EAE03210694049702
:106D100001972A46CDE90796CDE902000090434647
:106D20000E950EF09DFC314611F024F80028AED1EE
:106D3000374905914AF2D8320092CDE90796069478
:106D4000CDE90300CDE901004346012203210E9560
:106D50000EF086FC30E0B2B200232E48DFF8C0C04F
:106D6000DFF8B8E00694CDE90A23A2FB00010A9AF5
:106D7000912303FB021107F24713CCF80030234B99
:106D800004974FF0020905930EAE1BA3D3E900232D
:106D90004FF6FF770295CDF824C0CDF83890CDE9B5
:106DA00007E60397FFF7ACF94A46CDE900504346A2
:106DB000284603210EF0FAFB314610F0DBFF0028D5
:106DC0007FF465AF94F86A3043F0010384F86A30C9
:106DD00012F0A6FB00287FF434AE012018F0E2FD8B
:106DE000A1E54FF0120A9EE511F086FF4FF0030A6D
:106DF00099E500BFAFF300808D49FD1A0700000040
:106E000080F8FFFF0000FFF600CA9A3B618B030089
:106E1000DD8A0300002AE7844801480189720300E3
:106E200034520020174810F0D9FF84423FF479AD66
:106E300040F61823144A1549154823F04FF94040ED
:106E400080F311884FF0030002DF4FF00C0A6AE56F
:106E500005F16C00686725E64FF0070A63E50A98BC
:106E600010F0E4FE584610F0D5FE4FF0070A5AE540
:106E7000044810F0B3FF84423FF453AD40F60A23B8
:106E8000D8E700BFBC510020C4300500CC3105005C
:106E9000502D050000000000F0B590F824308BB0B4
:106EA000C3F342030D46044601210DF123001646AB
:106EB0008DF823300DF090F971780246284611F0D4
:106EC00051FD1F4B80B2A0FB03011BA3D3E900239C
:106ED000FFF716F923699842054620D21B1A0020B5
:106EE000184A194E0293A21AA6FB023217490190C2
:106EF0009209002309AE0232CDE90516D2B2032170
:106F0000CDE9033300931846022709970EF01AFCC7
:106F1000314610F02FFF30B925610BB0F0BD05D917
:106F2000C01A0023DCE70C200BB0F0BD00200BB032
:106F3000F0BD00BFAFF300808D49FD1A07000000CF
:106F400000CA9A3BBC510020898888888972030056
:106F50002DE9F047184D9DF820C095F8444014F0F5
:106F600001081ED195F83260DFF850E0A9871FFABA
:106F700082F960F3451663F34204A9FB0E016CF33A
:106F8000C406912303FB091185F8444008A3D3E903
:106F9000002385F83260FFF7B3F828644046BDE867
:106FA000F0874FF00C084046BDE8F087AFF3008053
:106FB0008D49FD1A0700000058520020002AE7847E
:106FC0002DE9784805469DF81860AC7D0C482A8468
:106FD0001FFA83FB61F345149123ABFB000166F3B9
:106FE000C40403FB0B11AC7503A3D3E90023FFF723
:106FF00087F86862BDE878888D49FD1A07000000AF
:10700000002AE784000000002DE9F04F044600F15B
:10701000350190F8440094F83230C0F3400060F33A
:1070200086138DB084F832300EF082FCA68F94F86F
:1070300032304F48E4610025A6FB0001912203F0A5
:10704000790302FB061184F83230257046A3D3E998
:107050000023C4E90555FFF753F8236C65608046AB
:107060000933A8F1310293424FF03101C4E902150E
:107070002ABF2564236122610EF024FC256A814623
:107080000BAE002D4DD008963A4DB4F83CA03A49CD
:1070900037482269DFF8ECC00492651BA1FB053577
:1070A000AAFB0001912303FB0A11344B05934FF017
:1070B000000A02272CA3D3E90023CDF81CC00694B4
:1070C0000B97CDF80CA0FFF71BF8104619464FF4AC
:1070D0007A720023FFF714F82D090435EDB22A4621
:1070E00002904B460321CDF800A05046CDF8048015
:1070F0000EF0B6FA314610F03DFE054668B994F838
:10710000443043F0010384F8443011F0EDFF0446AD
:1071100000B328460DB0BDE8F08F0C200DB0BDE8DF
:10712000F08F21690A9533460AAA03200B9501F0D6
:10713000E7F90B990029A6D011480BA3D3E9002346
:10714000A1FB0001FEF7DCFF0A9B20F07F4000EB73
:10715000030998E7384618F025FC20460DB0BDE835
:10716000F08F00BFAFF300808D49FD1A07000000CB
:10717000002AE78458520020398EE3383D930300FB
:1071800000CA9A3B897203002DE9F04FC38D478EE8
:1071900016461F4490F81A21BFB2394412F0070373
:1071A0008BB0044689B20AD05A1E042A00F27683B4
:1071B000DFE812F0C6016D02390265013E02B0F847
:1071C000F490A1EB09018DB22A0400F1838190F9BA
:1071D0003920002AC0F2708294F8F03084F8F1303F
:1071E00094F8942194F8953194F8181184F81911B1
:1071F00093420AD094F8963103F00F03062B04D182
:10720000002384F89521A4F8C830BF4BD4F814812A
:107210001A68944204BF00221A60B8F1000F00F00F
:107220005E81D8F80000002800F05981B4F81C31C4
:10723000B4F82AC04268C4F814216345B4F81E218A
:10724000B4F8201100F04082B4F828C0A8F806C0B5
:107250004FF0180E4FF0000CA8F81E30A8F82020B0
:10726000A8F8221088F804E088F81CC0414610F005
:10727000E3FC10F0EBFCA368002B09DAE26861681C
:1072800023F000438A422CBFB6187618A360F61A82
:10729000608DB4F81C8110FB05F080B2B0FBF8F2F1
:1072A0001FFA82FA18FB0AF39BB2984280F0D6804C
:1072B0001B1A40F2E242954802FB03F3A3FB0001D4
:1072C0008FA3D3E90023FEF71BFF20F07F40064485
:1072D000E28D94F939309144A9EB0707574440F205
:1072E000E249002BE78509FB08F7C0F20F82D4F8CA
:1072F0002401864982A3D3E90023A0FB0101FEF704
:10730000FFFE20F07F4000F10109BA46B4F82021C9
:10731000B4F81E117E4BA4F82A8042F2107000FBD4
:1073200002727C48A1853B443844B3FBF7F3013A31
:10733000B2FBF7F2B0FBF7F7A4F8C22098B28A1DAF
:107340009042A4F8CE00A4F8C67004DDC1F57F41D8
:10735000FA31014488B294F81A31A4F8CA001B0724
:1073600044BF0023A4F8C430022101201CF0FEFB1E
:1073700000220221074601200CF00AFE4FF4F872A9
:10738000654920460CF096FD05305FFA80F8634BA6
:1073900000944246012100200EF0ECF930F0020387
:1073A0000CD040F6CC435E4A5E495F4822F096FE20
:1073B000404080F311884FF0030002DF534BAAFBDB
:1073C00003AB50464EA3D3E900235946FEF798FE7F
:1073D000564A20F07F45A5FB02230721BAEB0200A5
:1073E00001FB05336BEB03014FF47A720023FEF7C8
:1073F00087FE94F939C04E4B4E4A21690491DFF85B
:107400003CE101954FF6FE7113EA2C0538BF154695
:1074100002903346039108940694CDF800904246BA
:107420000595CDF81CE0012100200EF019F930F08F
:1074300002030CD040F6E643394A3A493A4822F072
:107440004DFE404080F311884FF0030002DF002F13
:1074500040F0568100200BB0BDE8F08F08FB12020F
:1074600040F2E24392B2294803FB02F2A2FB000180
:1074700023A3D3E90023FEF743FE361A28E7858DC0
:1074800090F81A01D4F8F830D4F8D42106352944FC
:1074900089B26FF30200A4F8F410198184F81A017C
:1074A000A3F10901D4F8D80122B194F87651AE07BE
:1074B00040F17D81002800F08E81D4F8DC21106835
:1074C00043F8090C116053F8092CC4F8DC110AB90F
:1074D000C4F8E4116FF076000BB0BDE8F08F4FF404
:1074E00042630F4A1449104822F0F8FD404080F3EF
:1074F00011884FF0030002DFD8F8000096E600BFC5
:107500008D49FD1A07000000B452002000CA9A3BC2
:107510007FC3C901FF596202702D0020359A030014
:1075200048320500A4320500502D05008D49FD1A92
:1075300071EA030065EC030090320500DD99030059
:10754000CB4F012010F088FB8046002800F05481CA
:10755000C8480CF079FC0546002800F04D81C64B68
:107560001A68002A00F0218110F096FBD8F800304C
:10757000D4F814215A600C23C4F814816B71D4F828
:1075800024312A79BD4894F81A1142F00302A0FB75
:10759000030300202A71E87194F828212A72C3F3AA
:1075A0008F23A268A5F80930B4F81C31A5F80B3078
:1075B0000320B4F81E31A5F80D3060F30201B4F8D1
:1075C0002031A5F80F30002AC4F8FC6084F81A11A5
:1075D0000ADAE368616822F000428B422CBFF61899
:1075E0007618B21AC4F8FC20A54E09350122C4F859
:1075F000F850334610460221F760B4600CF0FCFCF2
:1076000000283FF467AF40F673339E4A9E499F4877
:1076100022F064FD404080F311884FF0030002DF48
:107620006FF0760017E76FF00F000BB0BDE8F08F3A
:10763000914894F8F010D4F8F820D4F8D43184F8B4
:10764000F110002594F81811056094F8940184F85D
:10765000191184F89501A2F10901D4F8D801C3B138
:1076600094F87651AD0714D494F8CF51EF0710D4A5
:10767000D4F8E051AB4200F0C78068B9187900F047
:107680000300032800F0E780C4F8D83106E0804FFB
:1076900057E7002800F0A980D4F8DC31186842F8D8
:1076A000090C196052F8093CC4F8DC11002B00F0F9
:1076B000A6806FF08B00CEE690F8E520002A3FF41C
:1076C0008BAD80F8E5308BE5B4F82CC094457FF4A1
:1076D000BBAD40F2E24C0CFB03FA42F2107C0CFB17
:1076E00001ACB4F8C2E00CF1FF3CBCFBFAFC1FFAA1
:1076F0008CFCE6457FF4A8AD012388F80430B5E59D
:107700000122104602210CF043FCA3E6A26C236C7C
:10771000DFF8848103FB1525A56419F0C5FC054637
:1077200094F8E400C0F3C20019F0C0FC054407FB64
:1077300005F5584BA26C94F8281105F5742505F24F
:107740003F25A3FB0535AD0C05FB0AF07B08024481
:10775000963B9A4209FB01FC28BF1A464FF0000EE7
:10776000C4E91132A0FB08013FA3D3E90023C4F808
:1077700050C0C4F8ECE02564FEF7C2FC3F4AD4F8E0
:107780002431A2FB03239B0A09FB03F9361A36A313
:10779000D3E90023A9FB0801FEF7B2FCA7EB050A19
:1077A00020F07F49B4F81C81B0E51C60DCE694F859
:1077B000CF51ED073FF57EAED4F8E051AA4232D06A
:1077C00000287FF47AAE107900F0030003283CD043
:1077D000C4F8D82173E643F8092CC4E97511C4F83C
:1077E000DC11002A7FF476AE72E642F8093CC4E967
:1077F0007511C4F8DC1159E76FF068002BE6C4F886
:10780000E4116FF08B0026E61D68C4F8E0510028F3
:107810007FF442AF186842F8090C196052F8093C2D
:10782000C4E9761142E71568C4F8E05100287FF4F6
:1078300044AE106843F8090C116053F8092CC4E9F0
:107840007611002A7FF446AE42E6D0790328F0D0C4
:107850000A28BDD1EDE7D8790328DBD00A287FF4C8
:1078600013AFD7E7AFF300808D49FD1A0700000082
:10787000C1F2030048530020B45200205917B7D179
:10788000D40A002048320500E02E0500502D0500E6
:10789000C186020083DE1B4300CA9A3B40F6C73311
:1078A000064A0749074822F019FC404080F3118836
:1078B0004FF0030002DF002743E600BF4832050017
:1078C000D82D0500502D05002DE9F04F037F0E68DF
:1078D00097B08A46154636680A96C3F3801300F1BE
:1078E0001E010446062214A88DF847302E6824F0A5
:1078F000FDFC9AF811000C90FF280DF1480900F0EA
:1079000083804A460DF1470117F01AFF9DF8477032
:107910000237FFB28DF84770236894F81C800B93F0
:107920000A9B4FEAD81803F1710B404659464B4663
:1079300007F0010212F0FEFD00284BD196F8D62088
:107940000D9067F3410286F8D6204946062206F1DB
:10795000DD0024F0CBFC96F8D62068F300025946EF
:1079600086F8D62006F1D700062224F0BFFC05F1E8
:107970000408032204F12E0105F1080024F0B6FCEE
:1079800005F11807042204F12A01404624F0AEFC58
:107990000522384604F13A0124F0A8FC38460521B6
:1079A0000CF01AFC94F83F106F7F00F03F0060F37A
:1079B0000507C1F30402AA776F77A78EEF8101282C
:1079C000D2B2BFB206D91B3202F01F020B2A01D875
:1079D0000D9B0FBB95F82030E668DDE90A10002208
:1079E00062F3000301274A6185F8203021462771A0
:1079F00010F022F931463068377110F01DF910F09F
:107A000025F917B0BDE8F08F4846062214A924F0E6
:107A10006DFC9DF847707FE7DAF8002096F8E400E7
:107A2000536094F8372094F83630490943EA02232A
:107A300061F3C5002B82638E86F8E4000E9319F083
:107A400033FB0D9096F8E400C0F3C20019F02EFB52
:107A50000D9BDFF828C394F831102A8A40F2E24BDC
:107A60000BFB07F7184407FB00F000F5742000F249
:107A70003F20ACFB00C04FEA570C800C0BFB01F120
:107A8000ACF1960C6862C5F828C0A963218FB04B91
:107A9000ADF83E1042F2107C0CFB0171AD483B4446
:107AA00002F1060CB3FBF7F30139B1FBF7F1A6F8CD
:107AB000C21099B261453844A6F8CE10B0FBF7F079
:107AC000A6F8C60004DDC2F57F42FA320A4491B23C
:107AD000A6F8CA100422414606F1E80024F006FC8C
:107AE000234613F81CBFCBF3401B5FFA8BF20D92B9
:107AF000DA0700F1FE804FF48073A3830A9B93F8AA
:107B0000260018F095FB04F12B03002800F0E68016
:107B10001846062204F1240124F0E8FB0C9BFF2BFD
:107B200004F1250000F0E08014A9062224F0DEFB19
:107B30009DF84730A3774946062204F11F0024F040
:107B4000D5FB96F8E430E9892A8AA286C3F3C203FA
:107B500084F83830BDF83E30E3866186304612F056
:107B600063F92146A881E080DAF804400B9810F010
:107B700063F8AB89E3801B2323710D9BD4F800903D
:107B8000002B40F0CB8084F81CB02146484610F012
:107B900053F810F05BF895F84500B5F84080B5F85B
:107BA0004240012100F0070019F09EF804EB0803A1
:107BB000814603F5E173684800244B443122A3FB5E
:107BC0000001C6E9022474605FA3D3E90023FEF735
:107BD00097FADAF80C200E996B6A20F07F4040F299
:107BE000E24808FB01283061224602210120FF1AE9
:107BF0000CF0CEF90A9D284611F05CFA821CD2B234
:107C000020460095554B01210DF0B4FD08F2B24815
:107C10000128A8EB090800F08C800A9B93F8243017
:107C2000DB0773D4304612F0FFF8DFF82CB1A7FB66
:107C30000B4545A3D3E90023074629462046FEF716
:107C40005FFA474A069620F07F49A9FB02230721E5
:107C500001FB09334FF4E471DAF808C00891414997
:107C6000079141490591A01A65EB0301336904931B
:107C700000254FF47A720023ACF13A040395FEF725
:107C80003FFA31A3D3E900230290A8FB0B01CDF802
:107C90000490FEF735FA053720F07F40FFB20090E0
:107CA00023463A46284601210DF0DAFC30F0020363
:107CB0000CD04FF4E5732D4A2D492E4822F00EFAD0
:107CC000404080F311884FF0030002DF012210468C
:107CD00002210CF05DF917B0BDE8F08F01460622D5
:107CE000184624F00EFB19E70622002124F009FBB8
:107CF0001EE7F1231D4A20491E4822F0EFF94040BB
:107D000080F311884FF0030002DFF4E60023012224
:107D10000093184611460DF02DFD83E76B7F43F06D
:107D200040036B77404617F075FB0123E883237708
:107D30002BE710F05FF80A9B83423FF46EAF16F01A
:107D400073FE6AE7AFF300808D49FD1A070000005B
:107D50007FC3C901FF59620200CA9A3B55EA03007A
:107D60008D49FD1AF9E9030071EA03005434050056
:107D7000A4320500502D05004C2E050083DE1B4368
:107D80002DE9F04F8DB09046059002930020BDF88C
:107D9000683006919DF85C70BDF860A0BDF864B0D5
:107DA000049311F0CBFB002800F0BB8107F0010623
:107DB000054630460DF0ACFD0390002E6BD1169BAE
:107DC000DDE90221304612F0B5FB002840F0BA810F
:107DD0002B6A05F11C020792002B63D0D5F8209086
:107DE000029BD9F8004003F0010A99F84400C0F35F
:107DF000C00100F0070018F075FFB9F84030B9F87D
:107E00004210DB4A00F5E17018440844A0FB02016F
:107E1000D5A3D3E90023FEF773F920F07F4020615A
:107E2000404617F0FFFD95F83330FF226FF3410312
:107E300085F8333085F83420B8F1000F00F07581F3
:107E4000BB1E012B40F2828195F8333095F8442017
:107E50006AF3000385F8333067F3420285F8442063
:107E60001699062205F1240024F040FA049B2B8683
:107E7000059A069B0798CDF800800021FFF7A0F82F
:107E800019F0BEF8002840F081812846FFF7BCF8C1
:107E90000DB0BDE8F08F06210CF020F800288ED13F
:107EA0001220F5E70FF0B0FE0890002800F0A9813D
:107EB00011F0AEFF0446002800F0C181203004F12B
:107EC0001C090CF09FF9002840F08A81032104F17D
:107ED000240018F0C7FD606FA4F82AA04FF6FF73C6
:107EE000A4F82CB02385002800F0878104F16802F3
:107EF00004F164010BF0FEFFB4F860309D4994F882
:107F00007A209D48E0650B4043F488734FF0000BE6
:107F100022F0070243F001034FF01B1184F87A208E
:107F2000A4F86030A165C4F874B0A4F878B0A4F8DF
:107F30002EB0C4F830B004F1340017F021FA94F8F0
:107F4000393060F3050384F8393001210DF12F0039
:107F500018F088FD9DF82F208849894BB4F82CE053
:107F600084F83BB0A1FB0201C90801EB4101A2EB7F
:107F70008102053240F2E24C0992049A94F83900E9
:107F800094F83C10A4F8C4B00CFB0AFA42F2107C3E
:107F90000CFB02AC099A84F83A207A4AA4F8C8B0DB
:107FA00000F03F0053445244B3FBFAF384F8390025
:107FB0000CF1FF3C98B2BCFBFAFCB2FBFAFA0EF1F2
:107FC000060221F00301A4F8C2C090424FF0060C53
:107FD000A4F8D0B0A4F8CCB0A4F8CE00A4F8C6A001
:107FE00084F83C10A4F8C0C003DD0638A0EB0E00F6
:107FF00080B294F8E430A4F8CA004FF0000B23F0EC
:10800000070384F8E430A4F8F0B084F8F2B0C4F8C0
:1080100014B1A4F818B1A4F830B10FF0CFF894F867
:108020004A2194F8763194F896E194F8BEC1A4F808
:1080300048B1C4E94E0194F87A100898A4F850B1F8
:1080400022F0030223F007036BF3451E6BF3C30C0E
:1080500021F0180184F84A2184F8763100220023A7
:1080600084F896E184F8BEC184F87A10C4E95023FC
:1080700084F853B1A4F874B1A4F894B1A4F8BCB1D5
:10808000A4F8C8B1C4F8540112F03CFAA4F8D20024
:1080900012F03EFAD4F8CC213B4BA4F8D4001340A4
:1080A000C4F8CC3112F03AFA94F8D03160F30203FC
:1080B00084F8D03112F038FA029994F8D02194F86B
:1080C000D630C4F8E4B101F0010A60F3C5026AF3E6
:1080D0004103312184F8D02184F8D630A1600622F2
:1080E0001699C4F804B0C4E977BBC4E975BBC4F8F9
:1080F0000CB004F1DD0024F0F9F894F8D6300399BF
:1081000067F3000384F8D630062204F1D70024F088
:10811000EDF8C5F8209084F800B0C4E905BBE4612F
:1081200063E60C200DB0BDE8F08F18F023FA0028AC
:108130003FF486AE02981699424617F0E9FD85F89D
:1081400034007DE60B200DB0BDE8F08F002017F065
:108150008DFC95F8333043F00203374685F8333011
:1081600072E600BFAFF300808D49FD1A07000000E2
:1081700000CA9A3B80F8FFFF48014801ABAAAAAAAF
:108180007FC3C901FF5962020000FFF62C6AA36D8C
:1081900063B14FF497632C4A2C492D4821F09EFF80
:1081A000404080F311884FF0030002DF04F14C01DE
:1081B00004F148000BF0A2FE0746002831D02668E3
:1081C000A765D6F85441F4B120460FF023FD3046A0
:1081D00011F024FE002303202B620DB0BDE8F08FC8
:1081E000BF23194A1B491A4821F078FF404080F309
:1081F00011884FF0030002DF68E604F16C0060674D
:1082000074E6072044E640F2C1430F4A1249104881
:1082100021F064FF404080F311884FF0030002DF3B
:10822000D2E740F2BA43084A0B49094821F056FF09
:10823000404080F311884FF0030002DFBFE7089849
:108240000FF0E8FC072023E6B0340500B03005004D
:10825000502D0500F02F05005033050000000000F0
:108260002DE9F04F80468FB004460E46174600F1C8
:10827000240106220CA818F81C5F24F037F894F8A3
:108280001CA018F0010FCAF3401AC5F3C0155FFA1D
:108290008AFB40F006810023A383B17C96F811800D
:1082A00011F0010104F12B004FF0060200F0E18013
:1082B00004F11E0124F01AF8B8F1FF0F04F12509AA
:1082C00004F11F0300F0DF801A46404604F11E014E
:1082D00017F036FAA37F02330CA94846A37706228B
:1082E00024F004F83368F989D3F800903B8AB9F890
:1082F0003020E286A386618618F0D4FE84F8380028
:108300003D68284611F090FDD6F80480B8812146DA
:10831000E08020680FF090FCBB89A8F806301B2392
:1083200088F80430D8F80040BBF1000F40F0C78057
:1083300088F81CA0414620460FF07EFC0FF086FC1A
:1083400097F84400FC89F368D5E90127974238BFC4
:10835000174640F2E24CC0F3C00100F0070003F101
:1083600020080CFB04F40B9718F0BCFC002202213F
:10837000A8EB000801200BF00BFE484611F0B6F800
:10838000021D574BCDF80090D2B2012100200DF014
:10839000F1F930F002030CD040F2CA33514A52498D
:1083A000524821F09BFE404080F311884FF00300BB
:1083B00002DF00273B4603220121009738460DF0DB
:1083C000D9F9284611F030FD4949B268DFF82C91FF
:1083D000484B069540F2F936CDE9071605932B690F
:1083E0000493A4FB09AB461DA2F10904504659466B
:1083F00039A3D3E900230397FDF782FE10461946FF
:108400004FF47A720023FDF77BFE33A3D3E90023F8
:10841000029059465046FDF773FE2FA3D3E900237F
:108420000190A8FB0901FDF76BFE0B9D20F07F403A
:10843000F6B2641B009023463246384601210DF007
:108440000FF930F002030CD040F2FB33254A2649E5
:10845000264821F043FE404080F311884FF003008E
:1084600002DF0122104602210BF092FD0FB0BDE8A1
:10847000F08F23F046FFB8F1FF0F04F1250904F156
:108480001F037FF421AF4846062200210B9323F0FF
:1084900038FF0B9BA5770CA91846062223F026FF70
:1084A00020E74FF452730F4A1349104821F016FE8B
:1084B000404080F311884FF0030002DFEBE67B7F42
:1084C00043F040037B77381D16F0A4FF0123F883A7
:1084D00088F81C302EE700BF8D49FD1A0700000008
:1084E00031EC0300B0340500A4320500502D050026
:1084F00035EC030065EC03004C2E050000CA9A3BE6
:108500002DE9F04F8DB01C4607934FF0FF09002373
:108510001746DFF8048123600A1D9A460446069236
:108520000A939B468DF827900BAE0AAD4FF0020CD4
:10853000CDE9018600953B460DF12702214600203A
:10854000CDF82CC00DF05EF902282DD00B9B8BBB13
:108550009DF82700FF283DD00538C3B2052BE5D88C
:1085600080B211F069FC0028E0D090F93930002B7E
:10857000DCDBB9F1FF0F02690A9B0CD059461846A3
:10858000059204930DF0A0F9069B0AEB03018842C3
:10859000DDE9043221D892469B469DF82790C5E735
:1085A000214600200DF076F90B9B022BF8D00B9B97
:1085B000002BCDD07323144A1449154821F08EFDA9
:1085C000404080F311884FF0030002DF9DF8270040
:1085D000FF28C1D1B9F1FF0F0ED00E48DA44AAFB33
:1085E0000001072303FB0A1105A3D3E90023FDF7CC
:1085F00087FD079B803018600DB0BDE8F08F00BF8D
:1086000000CA9A3B00000000FC340500403505001C
:10861000502D05008D49FD1A01F0030000000000F7
:1086200070B51C4682B01546064601AA0220019587
:10863000FFF766FF236813B30198431B1B0220D486
:1086400029460DF041F91C4A0721A0FB022301FB3A
:1086500000331946104616A3D3E90023FDF750FD59
:10866000236818442060002809DB40F2E24303FB42
:1086700006F3834203D2C01A8342FCD3206002B0C7
:1086800070BD014628460DF01FF90B4A0721A0FBDB
:10869000022301FB00331946104605A3D3E900234A
:1086A000FDF72EFD2368181A2060DCE7AFF3008089
:1086B00000CA9A3B000000008D49FD1A000000002E
:1086C0002DE9F041B0F8A42188B0054640F2E2431C
:1086D000494805AE03FB02F30024A3FB0001062773
:1086E00043A3D3E9002374600594B4608DF80F7040
:1086F000FDF706FD0DF10F020196B5F89A310490D1
:1087000000922846012104AA16F07CFC9DF80FE097
:108710000EF1FF30C0B20DF11603214603EB40000D
:10872000AC4605F10C084FF6FF749CF8A5319CF897
:10873000A47147EA03273FB2BAB2BEF1000F09D0D5
:108740003346A24203D0198891423AD00121023324
:108750009842F6D10CF1020CE045E6D1D5F8F8309C
:10876000D1B1032203F8042C13F8052C95F81A1143
:10877000052042F0030260F3020103F8052C1124E6
:108780000F20202203F8024C03F8010C1A7085F820
:108790001A1108B0BDE8F081BDF8142040F2E241A2
:1087A00001FB02F1100AC5F824111A70587095F8EF
:1087B0001A31042262F3020385F81A3108B0BDE8C9
:1087C000F081D5F8F81040F2E24303FB02F3120AFD
:1087D000C5F824314A700F7095F81A31042262F3FB
:1087E000020385F81A3108B0BDE8F081AFF30080CC
:1087F0008D49FD1A0700000000CA9A3B00000000E6
:1088000038B5044619F0C6FAA37DC3F34100013020
:1088100000F00300032834D060F34203A375253031
:1088200018F01EFA636813B3236903B31BF020F832
:1088300005460DF047F8C11C00201AF0DFFF1BF0C1
:108840006BF81BF015F829460DF03EF8124A072187
:10885000A0FB022301FB0033194610460CA3D3E909
:108860000023FDF74DFC2369181A206138BD0DF077
:1088700029F8C11C00201AF0C1FFBDE838401BF0E8
:108880004BB86FF34203A3752520C9E7AFF300800F
:1088900000CA9A3B000000008D49FD1A000000004C
:1088A0002DE9F04F87B004461AF098FD10F0FF0F45
:1088B0000AD118F02DFA2146C1481AF065FC1AF0C9
:1088C0005FFD07B0BDE8F08F1AF0A8FD07461AF06B
:1088D000E9FE06461AF0F0FE81461BF013F9054644
:1088E0001BF0F4F882461AF0A5FE80461AF088FEC6
:1088F00018F00EFA17F0FF0FDDD001200FF022FB69
:108900000746002800F04A8116F0FF06EDB240F05D
:108910003C81002D40F0C2804FF0FF0932464B46AB
:108920002946204619F08EFC0028C4D03A7F63689F
:1089300000205FFA88F802F00F018DF81300002B79
:1089400000F0C880636893F820309E0700F1C28071
:108950000729B0D0A37D180740F13E81002940F0DF
:10896000A3807B7F252B00F2D08004200FF0EAFA51
:108970000028A0D01AF0D8FF636A064643B9228CBB
:1089800040F2712303FB02F3B0FBF3F203FB120688
:1089900023688C481B690722A3FB000102FB03111B
:1089A00085A3D3E90023FDF7ABFBA0F24230B04230
:1089B00081D31AF017FE4846636817F047FCE37D41
:1089C0009B07804640F16281002800F05F8183466A
:1089D00001261AF031FD3B7FCDF808B0824607F141
:1089E0001E0205A85146C3F380130390009220464F
:1089F0000022019619F06AFC50461AF09FFC1AF00A
:108A0000E3FC002840F0578121466F481AF0BCFB78
:108A10006168A37D91F8202043F0800342F00102B9
:108A200081F82020A3750FF0ADFA4FF6FF730646CC
:108A300016223F7F02715146C38024221C3023F04E
:108A400055FC337FB460C7F3401767F345133377A2
:108A50001AF00EFF002130610120059F1AF07EFC04
:108A6000002D08BF4FF0FF0986F81990E37D381AF2
:108A700013F00203706103D018F1000318BF012343
:108A8000B27E63F30002B2760FF07CFA3146F060FA
:108A900030680FF08FFA0FF09DFA12E75FFA8AF054
:108AA00017F058FC814639E7012915D17B7F0C2B43
:108AB0007FF401AF00230193CDF80090D20907F1B4
:108AC0002403204619F0E2FA00287FF44EAF3A7FE3
:108AD00002F00F0100294CD006294AD0022900F0EB
:108AE0008A80012911D17B7F0C2B7FF4E4AE0DF13C
:108AF00013030193CDF80090D20907F1240300215C
:108B0000204619F0C3FA00BB3A7F02F00F02042A94
:108B10007FF4D1AE7B7F252B3FF6CDAEA37DD8076A
:108B20007FF5C9AE1AF088FC3B7F0278C3F380134F
:108B3000B3EBD21F7FF4BFAE0830062207F11E014F
:108B400023F0C4FB00287FF4B6AE7B7F002B3FF4FC
:108B5000B2AE63682BB13B7F03F00F03072B7FF4AA
:108B6000AAAE4A46294640469DF8133019F0CCFA81
:108B7000A1E67B7F252BC8D8A17D890602D5616837
:108B800000293AD0252BE1D9BFE7A07D5FFA89F112
:108B9000C0F3C00017F078FB8146BFE640F2C32364
:108BA0000A4A0B490B4821F099FA404080F311889A
:108BB0004FF0030002DFA7E600CA9A3B0000000066
:108BC000491E04008D49FD1A3D200400603905004E
:108BD0002C390500502D0500C2F380114B4607F1DA
:108BE0001E02204619F048FB3A7F02F00F010028D0
:108BF0007FF4B4AE6EE77B7FC4E796201AF072FD77
:108C000000201AF091FC2946404600234A4619F0FC
:108C10007BFA00287FF44FAE1AF00EFC0378032293
:108C200062F3030303703B7F02780546C3F38013AE
:108C300063F3C7120C236B7048462A7017F006FBCB
:108C4000E37D9E07014627D530B32A78284642F0B7
:108C5000400200F8022B062223F048FB07F11E0118
:108C6000062205F1080023F041FB28461AF066FBB6
:108C70001AF0AAFB68BB1AF04FFEA37D1C4843F014
:108C80000103A37521461AF07FFA1AE6A67D04F1C6
:108C9000190BC6F380169CE6A37D2A78C3F38013D4
:108CA000284663F3861200F8022B04F1190106220C
:108CB00023F01CFBD2E740F291430E4A0E490F48C5
:108CC00021F00CFA404080F311884FF0030002DFDE
:108CD0009AE640F21653074A0749084821F0FEF980
:108CE000404080F311884FF0030002DFC3E700BF6C
:108CF0005D1E04006039050034390500502D050063
:108D00002DE9F04F8FB083460DF137010DF136009C
:108D10000FF00AF8DFF8E0809DF836300A939DF8EE
:108D200037300B93DFF8D4900CF0CCFDD8F800402E
:108D3000A4FB09452AA3D3E90023824629462046FD
:108D4000FDF7DEF90646D8F80400274B0593002707
:108D500023A3D3E90023A0FB0901CDF818B0CDE986
:108D60000777FDF7CDF9214B26F07F46A6FB03BC24
:108D700020F07F40072303FB06CCCDE90370B4EB62
:108D80000B0065EB0C014FF47A720023FDF7B8F984
:108D90000097CDE9016053460B9A0A9803210CF025
:108DA0005FFC30F0020416D1114A124800231FF074
:108DB000A9FD68B1009423469DF837209DF8360040
:108DC00003210CF0D7FC6FF073000FB0BDE8F08FFB
:108DD000D8F80C00F9E76FF08B00F6E7AFF30080EE
:108DE0008D49FD1A07000000D55B04008D49FD1A6E
:108DF000447B0B00DC670020CC67002000CA9A3B54
:108E000038B50F4D04460CF05DFDA9680CF05CFD13
:108E10000C49B0FBF4F40444686807A3D3E90023C9
:108E2000A0FB0101FDF76CF920F07F40844294BF64
:108E30000020012038BD00BF8D49FD1A0700000049
:108E4000CC67002000CA9A3B01481FF0A1BE00BFBA
:108E5000600200202DE9174828F053FB4FF47A7484
:108E6000A0FB04BC04FB01CC4FEADB32074B42EA17
:108E70004C421A604FF4004200230548CDE900231C
:108E800020F056FC002003B0BDE81088B03B002065
:108E9000F00D002008B5044B187800F091FABDE8F9
:108EA000084020F098BD00BF626C0020044B1A7887
:108EB000824202D01870FFF7EDBF0020704700BF5C
:108EC000626C00202DE9184828F01BFB4FF47A74DF
:108ED000A0FB04BC04FB01CC4FEADB32044B42EAAA
:108EE0004C421A600020BDE81848FFF7DFBF00BF02
:108EF000B03B002030B585B028F003FB4FF47A7307
:108F0000164AA0FB034503FB01551268E30B43EA35
:108F100045439B1A124A93421ADD01F043FA044674
:108F200028B1012005B0BDE83040FFF7BFBF0220E7
:108F3000FFF7BCFF01ABC3E90144062201948DF8A1
:108F4000042093E8070005B0BDE8304023F0EFB9F6
:108F500047F230529342E4DC05B030BDB03B002014
:108F6000A0BB0D002DE930481A4D8CB00022002323
:108F700003A928461FF050FB10B10CB0BDE83088A3
:108F8000059CDDE9030100F05DF8B4FA84F464099E
:108F9000FF238DF8183007908DF8204028F0B1FAA3
:108FA0004FF47A74A0FB04BC04FB01CC4FEADB3223
:108FB00042EA4C424FEADC33CDE90A230CAB13E919
:108FC00003008DE8030006AB0FCB00F005FA20F09C
:108FD00002FDCBE79C0F00201FB583F00103CDE914
:108FE000011203930022002301A904481FF0BEFAD6
:108FF00003481FF0CDFD05B05DF804FB9C0F002079
:10900000B43B002010B51FF085F8044678B10A493A
:109010000A4828F0ADF8A36809491B68204698471C
:10902000A3689B6833B120469847002010BD6FF0BD
:109030001500FBE71846F9E7658F0200B43B0020F6
:10904000D98F02000C2303FB0011024B53F82100BF
:10905000704700BF7C1E05000A4A52F820300133D9
:1090600042F82030084A012303FA00F0137818432D
:10907000064BC0B210705A785870801A18BF012081
:10908000704700BFC43B0020636C0020890D0020A6
:109090000D4A52F82030002B12DD013B42F82030FF
:1090A0000A4A2BB901238340107820EA030010708C
:1090B000074B107859785870401A18BF0120704734
:1090C0006FF01500704700BFC43B0020636C0020A8
:1090D000890D0020044B054A1B78517818435070C5
:1090E000401A18BF01207047636C0020890D0020D2
:1090F000044A054B50781B785370181A18BF01208A
:10910000704700BF890D0020636C0020A0F1E003D0
:10911000072B03D82030C0B2FFF79EBF064B0622B4
:1091200013F8011B19B1013AFAD10020704703F876
:10913000010C0028F7D0F8E78C0D0020A0F1E00327
:10914000072B10B404D82030C0B210BCFFF7A0BF6A
:10915000064A0623002112F8014BA04208BF02F87C
:10916000011C013BF7D1184610BC70478C0D002044
:1091700008220021014823F0C4B800BF8A0D002056
:1091800010B50849002301EB4302B2F8014024B1B5
:109190000133062BF7D1002010BDA2F801000028F2
:1091A000F6D0F8E77C0D002030B50023074C1946B7
:1091B00004EB43020133B2F80150854204BF517001
:1091C0009170062BF4D1002030BD00BF7C0D002033
:1091D0000C220021014823F094B800BF7D0D00202F
:1091E00000487047890D0020004870477C0D002022
:1091F0002DE9F041144D154E761B80460F4605EBC8
:10920000C105C6F3C706B74204DB0024404628F078
:109210000DFB15E02A68D8F800309A420AD16B6835
:1092200040461B68984701280446EED0022804D027
:109230000028EBD101370835E5E788F804700024F1
:109240002046BDE8F08100BFB8450500E8450500AF
:109250002DE9F04145680769064628681EF05AFF67
:109260003860002849D095F805E029794EF400725D
:10927000D0F810C0D0F80880012303FA01F4DCF81C
:1092800000301EF0010F14BF2343A343CCF800307D
:10929000D8F80030984798BB02F0A0FF1A4802F0B7
:1092A000DFFE044630BB1949194827F086FF1948EC
:1092B00002F080FE7B795BB901233B710022002321
:1092C00013481FF0CFFCB3681B680BB130469847BA
:1092D000E98879B14FF4004040F2E7360027E1FB1E
:1092E00000674FF47A72002330463946FCF708FFD6
:1092F0001FF0C8FF2046BDE8F0816FF01504F9E7C4
:109300006FF00404F6E700BF80020020199302000A
:1093100060120020D43D050030B58BB0084C2046CB
:109320001EF0F8FE0569074A23462821684603F027
:1093300089FE0122291D684602F004FE0BB030BDF3
:10934000DE3D0500E83D050008B54FF4F0120023AE
:1093500002481FF0BBFC00EAE07008BD601200206C
:109360002DE9F3410D461746124901AA984621F00E
:10937000BFFCC0B1019EB6B9012D17D10E4C2A46D3
:10938000211D4046B847002806DB657124790B484B
:109390002CB120F032FB304602B0BDE8F08120F065
:1093A00046FB2046F8E76FF00100F5E76FF0150087
:1093B000F2E700BFDE3D0500E43B00200C1A05008B
:1093C00010B504460C2028F038FA024A02600472F4
:1093D00010BD00BFA01F050084B070B504AC84E8C8
:1093E0000F00202028F029FA0446084B44F8083BD7
:1093F00004AD06460FCD0FC495E8030084E80300D2
:109400003046BDE8704004B0704700BFA41F05009F
:109410000268034B9A420CBF08300020704700BF1F
:10942000A41F05007FB56C4684E80F00182028F0C3
:1094300004FA0546054B45F8083B064694E80F003C
:1094400085E80F00304604B070BD00BFA81F0500BE
:1094500084B070B504AC84E80F00202028F0EDF94A
:109460000446084B44F8083B04AD06460FCD0FC434
:1094700095E8030084E803003046BDE8704004B07E
:10948000704700BFAC1F05000268034B9A420CBF37
:1094900008300020704700BFAC1F050010B504461F
:1094A0000C2028F0CAF9024A0260047210BD00BF05
:1094B000B41F050013B56C4684E80300102028F0A3
:1094C000BCF90346054943F8081B024694E803002B
:1094D00083E80300104602B010BD00BFBC1F0500AA
:1094E00010B504460C2028F0A8F9024A0260047264
:1094F00010BD00BFC01F050010B504460C2028F0A9
:109500009CF9024A0260047210BD00BFC41F05002E
:1095100082B038B504A9054681E80C0011481EF058
:10952000F9FD0446D0B16B68012B12D063B1022B58
:1095300005D06FF08500BDE8384002B0704720F0DC
:10954000BAFA0028204604DDBDE8384002B020F019
:10955000ABBABDE8384002B020F09FBA6FF004000B
:10956000E9E700BFDE3D050082B010B502A9044660
:1095700081E80C000A481EF0CDFD58B16368022B4B
:1095800006D120F098FA0028CCBF002001206060AE
:10959000002001E06FF00400BDE8104002B0704709
:1095A000DE3D0500012810B50ED8094C01212268C6
:1095B00001FA00F313439A42236003D020F0E8FA43
:1095C00020F009FA002001E06FF0150010BD00BF87
:1095D000EC3B0020012808B510D808B9002008BDD0
:1095E00008490A6822F002039A420B60F6D0002173
:1095F000012020F0CDFA20F0EEF9EFE76FF0150032
:10960000EDE700BFEC3B00202DE9F04F15464FF48D
:109610001C721F464A430C2303FB0522394B13449B
:1096200082460E4693E807008DB005ACDDE9168949
:1096300084E807001EF06EFD834600285FD0CDE968
:109640000865CDE90A8905981EF064FD83685B68AA
:109650009C4653B10CAB13E903008DE8030008AB43
:109660000CCB20466146884748B9DBF808301B78A8
:10967000012B17D033B1022B28D06FF085000DB02D
:10968000BDE8F08FCDE90A8902970CAB13E903001E
:10969000CDE908658DE8030008AB0CCB204620F02F
:1096A000A0FAECE7CDE90A8902970AAA92E803003A
:1096B000CDE908658DE8030008ABBAF1FF0F0CCBCC
:1096C000ECD02146504620F04FFBD8E7CDE90A897F
:1096D000CDE9086502970AAE96E803008DE803001D
:1096E00008AD95E80C002146002020F03DFB0297D4
:1096F00096E803008DE8030095E80C00CEE7012012
:10970000BDE700BF202005002DE9F347DDE90A8908
:1097100082460D461646104F1AB1104B1B6847F88B
:109720002130012457F82510204620F050FA38B98E
:1097300024B96FF0850002B0BDE8F0870024F1E79E
:10974000CDE9008933462A4621465046FFF75CFFA3
:109750000028F0DDECE700BFF03B0020EC3B0020F0
:1097600007B5094B09491A788DF80020162302FB2A
:109770000313019302AB13E90300FFF79BFE03B051
:109780005DF804EB20F027B9646C00206D6C0020BC
:1097900001220249024802F0D5BB00BF646C0020E0
:1097A000483F050070B503788AB004460E4607AD01
:1097B000032B20D8DFE803F002191B1D11492846AE
:1097C00022F058FD63780493A3780393E37802931F
:1097D00023790193637900930595A3790A4A1E21A1
:1097E000304620F088FC0AB070BD0849E7E7084918
:1097F000E5E70849E3E7084A0A21284620F07BFC10
:10980000E0E700BF5B3F0500843F0500623F0500C5
:10981000693F0500733F05007D3F05002DE9F043DA
:109820008BB00D46164626496A460446984621F0F6
:109830005FFAF8B10098E8B10A2201A922F0A1FC70
:10984000019B1F7807BB162D1ED1C4B2042C1BD858
:10985000DFF880906C432A4609EB04014046B0478C
:10986000002813DD04F10F0002A94844FFF79AFF16
:1098700000200BE06A461349204621F039FA78B1FE
:10988000009B6BB9012D04D06FF015000BB0BDE843
:10989000F0830D492A464046B04700EAE070F5E7FC
:1098A0006A460A49204621F023FA0028EED0009BA0
:1098B000002BDDD1072DE7D12A460549EBE700BF94
:1098C0003F3F05004C3F0500646C0020CE3F050083
:1098D000666C00206D6C002008B523F07CFD074B02
:1098E0001978074B162202FB01310F31072222F0B3
:1098F000EDFCB0FA80F0400908BD00BF646C0020A8
:109900006D6C002010B590B0044623F064FD6946EC
:10991000FFF748FF08A9204606F034FB9DF82130E8
:10992000012B09D105481FF033F92046FFF7D4FF7A
:1099300010B103481FF02CF910B010BDE002002058
:10994000D002002007B50A4B18780A4B162202FBFA
:1099500000306946002307220F300093CDF8033012
:1099600022F0B4FCB0FA80F0400903B05DF804FBCB
:10997000646C00206D6C00202DE9F04107468CB02E
:109980008846162604A917FB06F40D4D4046FFF73E
:1099900009FF04F10F0041460722284422F0A6FCEB
:1099A0003A460849684603F065FB3246291968467D
:1099B00002F0C8FA04481FF0EBF80CB0BDE8F081E3
:1099C0006D6C0020A73F0500D002002037B50F4B7B
:1099D0001C780F4B162202FB04340F34002507229B
:1099E000694620460095CDF8035022F06FFC10B96F
:1099F000002003B030BD2146284623F0EAFC0028B1
:109A0000F6D023F004FC0120F3E700BF646C0020D3
:109A10006D6C0020F0B58DB0FFF794FF054610B9CE
:109A2000FFF7D4FF00B90225224F3B7805EB031561
:109A3000112D3E4607DC022D2AD0102D22D0002405
:109A400020460DB0F0BD202D1CD0122D4FF000048B
:109A5000F6D105F099FA3C7004460028F0D1164E74
:109A60000FCE02AD0FC533682B600422009423464D
:109A7000124902A805F056FA04460028E0D1022354
:109A80003B70DDE705F080FA002304463370D7E72A
:109A9000094E0FCE07AC0FC4336823600023009338
:109AA0000422064907A805F03DFA04460028C7D15C
:109AB0003D70C5E7656C0020A01D0500042505006C
:109AC00030B591B0054623F086FC69460446FFF7A1
:109AD00069FE08A9284606F055FA9DF82130012BA9
:109AE00005D1FFF72FFF214618B904F05BFB11B039
:109AF00030BD034B1878FFF73FFFFFF78BFFF6E70A
:109B0000646C002030B591B00D4608A9044606F0FB
:109B100039FA9DF82130012B0BD1204623F05BFC54
:109B20006946FFF73FFE0B4B00221A701DB1FFF78D
:109B300071FF11B030BD0221204623F0EDFBFFF78D
:109B400069FF2046FFF7C8FE0028F2D002481FF048
:109B50001FF8EEE7656C0020D002002010B5002051
:109B600004F06CFC0446C0B902F038FB0C4802F06B
:109B700077FA044688B90B490B4827F01EFB0B48BF
:109B800002F018FA0A4802F015FA0A4806F084F9B9
:109B9000094806F085FCFFF73DFF204610BD00BFD9
:109BA000B80200209197020090120020C33F0500E8
:109BB000C73F050098020020F0020020034B1878F0
:109BC000034B162202FB00300F307047646C0020FC
:109BD0006D6C002010B5014604460722044822F0AF
:109BE00085FB214607220348BDE8104002F0AAB9D0
:109BF000666C0020CA3F050001481EF0C9BF00BFC7
:109C00001803002013B5044683682C21DB689847AD
:109C1000A8B9A3686A461B692C212046984770B9E9
:109C2000084C009B22789A4209D0D8B2207001F0EB
:109C300069F820B92078FFF753FC1FF0CCFE02B082
:109C400010BD00BFDB6C0020014B1868FFF7DABFC6
:109C5000C03C002013B50C481EF05CFA0B4A1060A3
:109C600070B1FFF7CFFF044638B94FF4F01200236C
:109C70000748CDE900231FF05BFD204602B010BD70
:109C80006FF01204F9E700BFE13F0500C03C00207F
:109C9000280E002030B5064D0FCD87B001AC0FC4A3
:109CA0002B680449236001A805F0D0FB07B030BD44
:109CB000B41D0500759D020007B5002300934FF405
:109CC00000720523054906481EF068FF054806F0A6
:109CD000E3F803B05DF804EBFFF7DCBFB06D0020E4
:109CE000C012002028030020034B5B68834214BF8E
:109CF0006FF0150000207047C43C002070B5037859
:109D00008AB004460E4607AD032B20D8DFE803F0E7
:109D100002191B1D1149284622F0ACFA63780493FE
:109D2000A3780393E37802932379019363790093F3
:109D30000595A3790A4A1E21304620F0DCF90AB0C5
:109D400070BD0849E7E70849E5E70849E3E7084A3D
:109D50000A21284620F0CFF9E0E700BF5B3F05006D
:109D6000843F0500623F0500693F0500733F050021
:109D70007D3F050070B588B01646694605461C460D
:109D8000FFF7BCFF012E04D82A460349204622F0E3
:109D9000E4FE08B070BD00BF91A1020084B010B510
:109DA00088B00AAC84E80F0040F6CD42214600237B
:109DB0000F481EF0DBFB0446A8B110F10B0F0CD1CD
:109DC0000022002303A90A481EF026FC0E9B0093E4
:109DD0000AAB0FCBFFF7E2FF0446204608B0BDE810
:109DE000104004B070470349034827F0C9F9F4E76D
:109DF000CC0F002058030020C012002030B50C4DBD
:109E000089B002AC00220023214628461EF004FC43
:109E100008B109B030BD08AB13E903008DE80300B9
:109E200094E80F00FFF7D8FA1FF0D5FDEAE700BF6E
:109E30000C0F002070B5104E104C8AB00022002389
:109E400005A930461EF0E8FB08B10AB070BD9DF8C8
:109E500014207C235343E518E35C022BEED1CDE9BB
:109E60000100012300930DF115021323B5F85810DA
:109E7000686825F066F8E1E7CC0F0020C43C0020BC
:109E800008B5FFF731FF0028A3BF034B7C2202FB7C
:109E90000030002008BD00BFC43C002010B50221E6
:109EA00088B0044623F038FA48B92046FFF7E8FFA7
:109EB00028B1038D2BB16946204606F063F808B03F
:109EC00010BD094A8260094AC260012202824FF62F
:109ED000FF72C282037600F10801406808F050F971
:109EE0000028E8D0EBE700BFE93F0500F19E020043
:109EF0002DE9F041134686B006460F4639B91822BF
:109F0000184622F0FEF9384606B0BDE8F081FFF7AA
:109F1000B7FF04460028F7D0134BD0F808C001AAB9
:109F200003F11008964618685968154603C50833AA
:109F300043452A46F7D11B782B707146604622F0C4
:109F4000C4FA054670B9094BE3603B8AA06001334F
:109F500023820323237604F10801304608F010F928
:109F60002846D1E70120CFE7C81D050045A0020023
:109F70002DE9F04788B007461446FFF781FF002817
:109F800059D024B90C81204608B0BDE8F087631E83
:109F900000F15A020F3413F8015F12F8011B6940F7
:109FA000D173197802F8011CA342F4D1DFF88C9028
:109FB000DFF88CA000F16A0400264FF001080025AC
:109FC0002378EB40DB072ED514F8101C08FA05F3B4
:109FD0001942384605EB060214BF01210021FFF7A4
:109FE00083FE8DF8080003928DF8101027F089FA8F
:109FF0004FF47A7CA0FB0C23CDE90023019B0CFBE2
:10A0000001330193009BDA0B019B42EA4342DB0BD5
:10A01000CDE906230022002302A948461EF0A6FA35
:10A0200050461EF0B5FD0135082DC9D10836802EE9
:10A0300004F10104C3D10120A6E700BF0C0F0020EA
:10A04000480300202DE9F04107468AB00D4600295B
:10A0500062D0C968002961D0FFF712FF04460028CA
:10A060003AD02F4BD1F800C06A4603F1100896464B
:10A0700018685968164603C6083343453246F7D177
:10A080001B7833707146604622F01FFA38BB2B8A6A
:10A09000A060023323820323237604F14003236369
:10A0A000E38AA385284624F0D8FC1E4B23620123B3
:10A0B0002085A3863846FFF7E3FE20B100F120019A
:10A0C000384608F065FAB4F8580018B1208D003011
:10A0D00018BF012080F001000AB0BDE8F081EB68F4
:10A0E0001F68114B05AA03F1100E944618685968B1
:10A0F000164603C6083373453246F7D11B783370D2
:10A100006146384622F0E1F90028DCD1284624F0E7
:10A11000A4FCA4F85800D6E70846DDE70846DBE7CC
:10A12000D91D0500719F0200EA1D050038B50546DE
:10A13000B0B90D4C23789BB1606810B123F067F87B
:10A1400065600023094923701A4601F8012B013389
:10A15000102BCA73F9D12285A4F85820002038BDED
:10A160006FF01500FBE700BFC43C00201E3D00203F
:10A1700038B5064D2C7834B92046FFF7D7FF0123B8
:10A180002B70204638BD6FF00B00FBE7C43C00206D
:10A190002DE9F0430378063B012BA7B005460E4698
:10A1A00003D9012027B0BDE8F083447814F00F04F0
:10A1B000F7D16B789C42F4DA69681022214403A835
:10A1C00022F0ADF978B33D4B08AA03F1100E90468A
:10A1D0007746186859689446ACE80300083373451D
:10A1E0006246F6D11B788CF80030414603A822F075
:10A1F0006CF9D0B1252212A903A803F019FA0DAA0F
:10A200002E4B9646186859689446ACE8030008330C
:10A21000BB426246F6D11B788CF8003025221CA97F
:10A22000704603F005FA1034C3E73046FFF7D2FC5E
:10A2300005F08CF907460028F5D1FFF799FF7C243B
:10A240005FFA80F8314638461D4FDFF8789023F0EA
:10A25000C0F804FB08F43D19686050B1FFF71EFE1A
:10A26000D9F80000019001A9686823F0B6F8002031
:10A2700098E74A4612AB52F8040F516803C309F13C
:10A280000C030FCB1CAD85E80F00231D3B4412AA25
:10A290002946304605F0A4FE08B1FFF7FBFC7C23FD
:10A2A00003FB0873D9F80000029002A9586823F054
:10A2B00094F80028DBD0FFF7EDFCD8E7C81D0500B7
:10A2C000C43C0020FC1D050008B5FFF70DFD00286B
:10A2D00005DB7C235843024B02221A54002008BDA0
:10A2E000C43C0020024B187002481EF051BC00BF55
:10A2F000990D00206803002010B50A480A4C1DF093
:10A3000009FF206058B1094B09494C2219F0C0FFE0
:10A31000206825F099FF074801F024FB08B16FF091
:10A32000150010BD46400500403D002024250500D5
:10A33000FA3F0500E5A2020001481EF0BDBA00BFC9
:10A340001410002038B5144B1A780B2A04460D4619
:10A350000BD80123934040F61302134219D19B06F8
:10A3600003D5BDE8384001F0C7BA4FF47672002338
:10A370000A481EF0C7FA0A48214600232A46006808
:10A3800025F06CFF044610B104481EF095FA2046F3
:10A3900038BD6FF01204FAE7990D00201410002068
:10A3A000403D0020084B1B780B2B09D8DFE803F059
:10A3B000060608080A0808080808080A0120704765
:10A3C0000220704700207047990D00201FB54C24D3
:10A3D0000294044C0194BDF81840009424F026FB2C
:10A3E00004B010BD6440050007B5064B00934FF460
:10A3F00000720523044905481EF0D0FB002003B07D
:10A400005DF804FB64260500B06F00206013002097
:10A41000F0B5134E134F89B0002200236946304631
:10A420001EF0FAF8054608B109B0F0BD1FF03EFD78
:10A4300004460028F8D01822294602A821F061FF1E
:10A4400008230DEB030120460397CDF810D0ADF89B
:10A45000143007F02BFD204622F0D9FEDCE700BFC8
:10A460006C0F00209C2505002DE9F041134FDFF80B
:10A4700050808AB001AE00220023314638461EF0DB
:10A48000CBF8054610B10AB0BDE8F0811FF00EFD13
:10A4900004460028F7D01822294604A821F031FFED
:10A4A0000C2304A92046CDE90586ADF81C3007F041
:10A4B000FDFC204622F0ABFEDDE700BF3C0F002094
:10A4C0000026050037B5054640F6CD42014600237B
:10A4D0000C481EF04BF8044678B110F10B0F09D16F
:10A4E00000220023694607481EF096F82846FFF729
:10A4F000E9FF0446204603B030BD0349034826F077
:10A500003FFEF7E76C0F0020480400206013002096
:10A5100030B5054685B040F6CD42014600230D48D2
:10A520001EF024F8044678B110F10B0F09D1002277
:10A53000002301A907481EF06FF82846FFF7E8FF3F
:10A540000446204605B030BD0349044826F018FEF5
:10A55000F7E700BF3C0F0020380400206013002004
:10A5600008B5FEF73DFE094B1B7823B1012B07D040
:10A570006FF0850008BD0921BDE80840FFF7E2BE85
:10A580000130BDE80840FFF79DBF00BFA20D0020CD
:10A5900008B5FEF729FE094B1B7823B1012B07D024
:10A5A0006FF0850008BD0D21BDE80840FFF7CABE69
:10A5B0000130BDE80840FFF7ABBF00BFA20D00208F
:10A5C00001220249024801F0BDBC00BFDD6C002041
:10A5D000B040050010B501F001FE074801F040FD54
:10A5E000044630B90548064926F0E7FD054801F064
:10A5F000E1FC204610BD00BF5804002000140020DC
:10A60000C1A50200C440050038B5FFF7DFF9C8B1A5
:10A61000FFF7C8FE02281BD10F4B1C780F4D2B787B
:10A62000A34217D0FEF7A4FDFEF7D2FDFFF798FF77
:10A63000FFF7AEFF20462C70FEF730FFBDE8384034
:10A640001FF0C9B9FFF7AEFE841E18BF0124E5E76D
:10A650000124E3E738BD00BFDD6C0020A20D00201F
:10A6600070B50C4615460A4900221E4620F040FBF4
:10A6700050B1012C09D1224606493046A84700288E
:10A6800002DDFFF7C1FF002070BD6FF01500FBE792
:10A69000BA400500DD6C00200148FEF7B3BC00BFE6
:10A6A000CE40050010B5094C0A44914200D110BDBE
:10A6B00011F8013B43401809205C80EA0310C3B243
:10A6C0001809205C80EA0310C0B2EEE7D440050010
:10A6D0000B6801330B60014B1B68184770040020A6
:10A6E00007B50023019302460B46034801A900F079
:10A6F000F7F803B05DF804FBD1A6020030B585B0D1
:10A70000CDE901010446002501A90548039500F0A3
:10A71000E7F8DDE902309842B8BF255405B030BDF6
:10A72000B7A004002DE9F84FB0F8189019F0080808
:10A7300004460DD001290CBF49F0100949F0200949
:10A74000A0F8189082F31188BFF36F8FBDE8F88FDF
:10A7500009F00709022907D120461FF0D9FC00287B
:10A76000F0D00128238B4AD16769238B002F15DA9B
:10A770002568C4E9008823F0070343F0010323831D
:10A780000026238B03F0070ACA4502D0A1680029DE
:10A7900056D10DB9002E6DD0002152E003F0070113
:10A7A000481F01281CD823F00703062925689BB2FF
:10A7B000C4E900880AD13DB1618B284600680131A7
:10A7C00089B20028FAD1618343F002032383204633
:10A7D0001FF09EFC0028D3D0238B43F02003CEE74C
:10A7E00004290AD123F0070399B2218320461FF0E0
:10A7F0008FFC10B141F0200121830025C0E7032820
:10A8000009D1216923F007030E6843F0060323836F
:10A8100000252F46B5E7042806D1216923F0070358
:10A820004E6843F00403F2E7052806D1216923F0BE
:10A8300007038E6843F00503E9E700252E46E8E7A5
:10A84000012143F00803238382F31188BFF36F8F44
:10A85000F9B985BB16B121492046B0474FF0200316
:10A86000EFF3118283F31288BFF36F8F238B23F0F2
:10A8700008032383238BD90627D523F010032383D2
:10A880000121B4F8189009F0070900297FF462AF9C
:10A8900058E7A1680029DCD0D1F80090D1F804B0C5
:10A8A0003B4652462046D847B9F1000FD1D0494621
:10A8B000D9F80090F2E7D5F8009029463B46524679
:10A8C00020461FF041FC4D46C3E713F020011EBF98
:10A8D00023F0200323830221D3E700BF75A10400E6
:10A8E0002DE9F04F8DB01F46531E0090894601930D
:10A8F0004FF00008019B5878252803F101042AD164
:10A9000000224FF0FF3603F1020C1146029234464A
:10A910004FF00A0E9CF80000CDF804C039280CF165
:10A92000010C45D8312880F099802A2800F09F80BA
:10A9300025D8202828D018D8002800F09A81494628
:10A94000009B25209847019B49461878009B984713
:10A9500008F10208CEE7002800F08B814946009BF1
:10A96000984708F101080194C4E723280CD0252852
:10A97000E5D14946009B984708F10108BAE72D2820
:10A980007FD003D82B28DAD10246C3E72E285FD028
:10A990003028D4D1002C80F26881002E60DA029B2E
:10A9A000002B00F0608100240EFB0404303CB1E772
:10A9B0006C2803D16C2946D14C21ABE726D86428FA
:10A9C00013D00ED8582800F0ED806328B7D13D464B
:10A9D0004FF0010B55F8043B8DF818300DF1180AB3
:10A9E00028E0682850D06928A9D17A2950D13B683D
:10A9F000752807F104059A4640F09A804FF0000B45
:10AA0000202A40F09880013C9C4F57E07528ECD0FC
:10AA100013D8702800F09B80732890D13D4655F8DC
:10AA200004AB504621F030FC002E834602DBB042DE
:10AA3000A8BFB346924F00266DE0782800F0B280A0
:10AA40007A287FF47CAF00297FF479AF014661E773
:10AA5000029B03F0FE03029300265BE7002E03DB5C
:10AA60000EFB0606303E55E724EAE4749CE7002E10
:10AA700057F8043B01DB1E464CE71C1EBFF64AAFED
:10AA800064420223029345E76829DCD1482141E76B
:10AA90006C29ACD04C29AAD1FD1D25F007057528DD
:10AAA000F5E802ABACD0BAF1000F7BF10003A7DAF6
:10AAB000DAF1000A734F6BEB4B0B013C0BAB0493C9
:10AAC00000230393039B013B05930A220023504676
:10AAD0005946FBF715FB049B303203F80129504619
:10AAE00004930A2200235946FBF70AFBBBF1000F2F
:10AAF00008BFBAF10A0F25D2039BC3F1010B0CABBF
:10AB0000A3EB0B0A002EAAF1030A04DA029B13F04E
:10AB1000010F18BF2646A6EB0B03002B0393029BE5
:10AB2000D4BFA4EB0B04A41B9B0766D426465DE0B0
:10AB30004FEAE37BB7E72B2A06BF04F1FF34524FFD
:10AB40004F4FBBE7059B039382468B46BAE73D46D2
:10AB500055F8042B002A40D04C4F92464FF0000B82
:10AB6000023C00F06000A0F1390E0DF12C0C002326
:10AB70000AF00F02092A88BF72443032BBF1000F7D
:10AB80000CF8012908BFBAF1100F4FEA1A1203F1AD
:10AB9000FF3042EA0B724FEA1B11AED303469246D6
:10ABA0008B46E5E76C2906D13D464FF0000B55F882
:10ABB000043B9A4606E04C29F6D1FD1D25F0070519
:10ABC000F5E802AB232A06D1304B314F10F0200FAD
:10ABD00018BF1F46C4E72A4FC3E74FF0050BDFF845
:10ABE000B4A027E749462020009B9847013EF9D5AD
:10ABF00024EAE472013C9044A41AA8EB070602E0A0
:10AC00004946009B984706EB070817F8010B0028F8
:10AC1000F6D1039E013E16D5039B5E4623EAE377F9
:10AC2000013E15D5BBF1000FACBFBB4407F1000BD3
:10AC30002646013E12D5002CACBF5C440BF100044B
:10AC4000A0442F4656E64946009B30209847E1E74E
:10AC500049461AF8010B009B9847E1E74946009BDB
:10AC600020209847E5E701230CE7002EBFF6F8AE59
:10AC70009AE640460DB0BDE8F08F00BFE640050003
:10AC80001E410500E4400500E8400500EA400500DB
:10AC9000ED400500F040050008B54FF02002EFF34D
:10ACA000118382F31288BFF36F8F02F013FA034807
:10ACB0001FF014FA01F0D2FEFCE700BFF6400500D9
:10ACC0001FB507240294044C0194BDF81840009469
:10ACD00023F0ACFE04B010BDA30D002010B5084C4D
:10ACE00086B024788DF81740012402940DF11704E2
:10ACF0000194BDF82040009423F098FE06B010BDEA
:10AD0000AA0D002000B589B064288DF8070019D875
:10AD10000E4B18221870002102A821F0F2FA0C4BF9
:10AD200003930DF10703049302A901230020ADF85A
:10AD3000143007F0BBF810F1800F08BF002009B0F5
:10AD40005DF804FB6FF01500F9E700BFAA0D0020C5
:10AD5000142705002DE9F743884607460821C06AF5
:10AD6000144E1FF03BFDD8F80040241A8146C8F865
:10AD7000004004EA0605A54203D3002003B0BDE865
:10AD8000F08308236A46214638461FF0A9FC0028B4
:10AD9000F4D1694638461FF02BFD40B1BDF80230B2
:10ADA000BDF80420C8F80040354013441D44A4EB0E
:10ADB0000904E0E70000FFFF2DE9F04F044689B0E9
:10ADC0000D4600F11407384626F07DF828461DF0A0
:10ADD000A1F9A062002800F01F818368DB68984712
:10ADE000E06228B96FF01505284609B0BDE8F08F7C
:10ADF000A06A8368DB6898470368013B1F2BF1D882
:10AE0000A06A216805AA25F00DFC0028EAD1A389D3
:10AE1000002BE7D0069AB3FBF2F502FB1535002DA7
:10AE2000E0D1E389012BDDD9E36A009593F8048032
:10AE30004FF0FF324FF0FF3338461DF047FC08213A
:10AE4000E06A1FF0CBFCA9460646E3891FFA85FAA3
:10AE5000534544D8E3894B4500F0D38053450BD18B
:10AE6000009908234246891B20461FF070FC18B940
:10AE70006946E0891FF0D6FC69462046FFF76AFF65
:10AE80000546002840F0BF80009B794A636013406C
:10AE9000A3609146D4E9011399420ED3082301AA75
:10AEA00020461FF01DFCC0B901AB13F8012B9045E3
:10AEB00040F0C28001300828F7D16368E0891B0C9C
:10AEC0001B04694600931FF0ADFCA389009942461C
:10AED00020461FF03CFC002826DA054693E0A189B5
:10AEE0002B04891B13FA81F1424608232046009166
:10AEF0001FF02DFC78B16946E0891FF093FC09F141
:10AF0000010908234246009920461FFA89F91FF0DB
:10AF10001EFC00289ED0013597E7BBF1000F00F022
:10AF2000A3806FF01C056EE046D063683344009345
:10AF30004FF6FF780099A3898AB29B1B9A4216D3D9
:10AF4000616820461FF027FC0028C6D16268484986
:10AF500002EA0103A2891344A3EB460363600B409A
:10AF6000A36020461FF030FD002840D0B5E708233D
:10AF700003AA20461FF0B4FB0028AED103A9204647
:10AF80001FF036FC38B1BDF80C30434503D1BDF895
:10AF90001030002B43D0009B33440093CAE75B1A68
:10AFA000424620461FF0D3FB002896DB08D0E26A19
:10AFB000A36812681344A360D4E901318B42EED830
:10AFC0006168A38901EB46029A42CDD1DFF8A080E7
:10AFD000A36801EA08029342C6D020461FF0DBFBBB
:10AFE00000287FF47AAF636803EA0803A360A389AB
:10AFF000A288A3EB4606B24205D120461FF083FC8F
:10B000006BE76FF02C0538461DF0DEFB002D7FF45A
:10B01000EBAE01232374E7E66FF00505E4E6636811
:10B02000E0891B0C1B04694600931FF0FBFB009991
:10B0300020461FF0B0FB97E701A920461FF0D8FB80
:10B04000D4F804A080B1009ABDF808B0BDF806108D
:10B05000E06A02EA0902A26059441FF0BFFB1044F3
:10B060005045A0603FF459AFAAEB0603636011E7B7
:10B070000000FFFF2DE9F04F1E46037C89B0044617
:10B0800089469046002B00F0C080C26A0821104615
:10B090001FF0A4FB3146824610461FF09FFBA38998
:10B0A000A3EB8A039E42074600F2B2801EB1B8F1BC
:10B0B000000F00F0AD806368039304AA03A9204643
:10B0C000DDF80CB01FF034FC0546002866D1BDF851
:10B0D00010304B4505D06268039B9A42EDD1E6B92A
:10B0E0005CE004A920461FF083FB0028F3D0BDF8E4
:10B0F000143086B19E4210D1BDF812004FEA1B41B8
:10B10000090401443346424620461FF0F7FA00285E
:10B1100003DC054642E0002B40D0002F42D104F171
:10B12000140A4FF0FF334FF0FF325046DFF8ECB017
:10B130001DF0CCFA0023E289934263D0D4E90121C7
:10B140007818824231D3FF2306A8ADF81890ADF8E5
:10B150001A10ADF81C608DF81E301FF036FB36B1AA
:10B1600033464246A16820461FF084FB054631461F
:10B17000E06A1FF033FBA3681844A060002D4AD199
:10B1800006A920461FF0AEFB0546002843D13246F3
:10B19000019250461DF018FB019A1546284609B049
:10B1A000BDE8F08F5744BFB2B9E70821E06A0193C8
:10B1B0001FF014FB4FF6FF71ADF818100021ADF829
:10B1C0001C101118ADF81A10A18902EA0B020A44EA
:10B1D000121A626006A81FF0F8FA06A920461FF0AE
:10B1E00081FB211DE0891FF01DFB626802EA0B0252
:10B1F000A26020461FF0E8FB02460028C8D1019B50
:10B20000013398E76FF01B02C2E76FF00C05C5E74A
:10B210006FF01505C2E72A46BAE700BF0000FFFF3E
:10B220000C4BF0B45F6A0C4E0C4BB34203D36FF07F
:10B230008500F0BC70475D68BD4209D31C693CB114
:10B2400095F802C00579AC4502D12346F0BC1847F9
:10B250002433EAE7443D00205C120020381200202D
:10B260002DE9F047134CDFF85080DFF85090054689
:10B270000E461746444503D36FF08500BDE8F087BE
:10B280006268D9F824309A4212D3A36983B19078C6
:10B290002979884205D13A4631462846BDE8F0472B
:10B2A00018475279012A03D13A4631462846984731
:10B2B0002434DFE7381200205C120020443D0020D7
:10B2C0002DE9F0410A4C0B4D06460F469046AC4224
:10B2D00002D36FF0850009E063690BB92434F6E707
:10B2E00042463946304698470028F7D1BDE8F081FC
:10B2F000381200205C12002007B583788DF80030EA
:10B300000379427943EA0223ADF80230C3786846F4
:10B3100003F003038DF8043019F07AFB10F1780F75
:10B3200004D018B1002003B05DF804FB9DF80000C4
:10B3300019F0F4FB10F1780F01D00028F2D1024B84
:10B34000012083F8B900EEE7443D002008220021E7
:10B35000014820F0D6BF00BFFF3D002070B50B4B69
:10B360000B4CA34201D3002070BD196A1E7F00223E
:10B370000439D5B2AE4201D82433F2E7013211F8D4
:10B3800032508542F5D10120EEE700BF381200208F
:10B390005C12002073B5C4B263060E468DF80740F8
:10B3A00007D02046FFF7DAFF88B10F4B93F8BA00B9
:10B3B00068B10D4D204666B119F04CFBEB690BB935
:10B3C000012004E008200DF107019847304602B043
:10B3D00070BD19F067FBEB69002BF1D00DF107018F
:10B3E00009209847ECE700BF443D002004282DE9E0
:10B3F000F04704460F46DFF88C800ED1FFF7A6FF1A
:10B400001E4B93F8B92099465AB100F007FD042C61
:10B4100001D0012C05D11A4D16E00528F0D00128E5
:10B42000EED0174D45451ED3144B1B6A1BB339464E
:10B430002046BDE8F0471847D5F820A000262A7F0F
:10B44000F3B29A4203D824354545F5D307E00AEB19
:10B45000C3030136187919F08BFB0028EFDA0023BB
:10B4600089F8B930DDE7EB681BB13A46214628463A
:10B4700098472435D6E7BDE8F08700BF443D00205B
:10B48000381200205C1200202DE9F047AD4EB36960
:10B4900005460C4617467BB92978C1F30400C3B2B0
:10B4A000012B00F0A58040B258B1022B00F01081B2
:10B4B0006FF01500BDE8F08798470028ECD1002018
:10B4C000F8E709063A686B782FD5062B10D0082BC1
:10B4D00025D0002BECD101215370117096F8C310C8
:10B4E000002918BF022343F00103137002231AE05E
:10B4F00069880A0A131F012BDAD9072AD8D8736A78
:10B50000C9B21D78002DD3D05E78964203D1814216
:10B5100000F0108101302B44F3E71B780FE196F81F
:10B52000BA30137001232360C4E7013B082BBFD856
:10B5300001A252F823F000BFD3B50200B1B402005B
:10B54000E3B50200B1B402005DB50200B1B402007F
:10B55000B1B40200B1B4020069B50200A87819F0D4
:10B5600045FA0028ABD0A3E76C8854B1FF27746A72
:10B570000020B94694F80080B8F1000F0DD10028E2
:10B5800096D0FFF7E3FE6B8886F8BA30F369002B9C
:10B5900095D06D490320984791E76378042B0BD031
:10B5A000052B0CD0022B04D167796B88BB4208BFF6
:10B5B000012023781C44DDE794F80390F9E76B88B9
:10B5C000BB42F6D1B9F1000FF3D12046FFF794FE4C
:10B5D000EFE76B88012B7FF46BAF002086F8C30088
:10B5E00068E76B88012B7FF463AF86F8C33066E7AA
:10B5F00096F8BA30002B3FF45BAFB5F804C0D6F82C
:10B6000024805FFA8CF043461A78002A3FF450AF4A
:10B610005978022904D193F804E0864500F2968017
:10B620001344F1E710705070216043E788449AE0BA
:10B630000B287FF43DAF0024FF27BA46A14608E05F
:10B6400098F80130042B11D0052B24D098F8003045
:10B65000984498F80030002BF2D1F36913B14946B1
:10B6600007209847002C7FF42AAF21E798F8027052
:10B67000AA8898F803A0BBB29342E7D169881FFA61
:10B680008AF28A42E2D1072B1FD83344C14683F89D
:10B69000BB200124DAE7AB88BB42D7D1AB78534556
:10B6A0000ED098F80240204600F09AFB204619F090
:10B6B0005FFA10F1780FECD0B0FA80F46409C5E7B6
:10B6C0004046FFF719FE0446C0E7C1460024BDE727
:10B6D0000A066B7818D5002B7FF4EAAE2D796B063D
:10B6E0000AD02846FFF73AFE00283FF4E1AE96F86C
:10B6F000BA30002B3FF4DCAE3E682846314619F0E4
:10B70000F1F900207070F1E6012B08D0032B7FF4D3
:10B71000CFAE6B88002B7FF4CBAE012103E06988AC
:10B7200000297FF4C5AEA888FFF734FE00287FF417
:10B73000C6AEBDE6022A3B607FF4EFAE5B882360B5
:10B74000BDE600BF443D0020FE3D002095F90030DD
:10B750003A686878002BBFF66BAF00283FF462AF01
:10B760000A287FF4A5AE98F8001000293FF4A0AE97
:10B7700098F80130042B7FF459AF98F802309C45BB
:10B780007FF454AF072B96BFF618002396F8BB3012
:10B7900013700123D3E700BF13B5124C237DCBB93F
:10B7A000E268A168019201AB80201FF038FA019A8B
:10B7B000A3681344A360E3689B1AE36043B93AB1FA
:10B7C0002369E2889A4203DD9B0601D10123237598
:10B7D00002B010BD00231A4619468020237519F0C7
:10B7E000EDF9F5E7443D002030B585B000230C4667
:10B7F00001930246002871D1002942D108220B464C
:10B800000DEB020124F069FD002804DA802019F014
:10B8100021F905B030BD364B029919600399596082
:10B8200003F1380199609DF908101C750029C3E9DE
:10B830000344BDF80E201C460ADB802A04D9802070
:10B8400019F008F90020E2E712B1C3E90322E0E7AA
:10B850002378C3F341130A3354F82330002BD5D097
:10B86000244A02F10801A2F1080098470028CDDB24
:10B87000E28823699A42D4BFE260E360FFF78CFF5D
:10B88000C7E71B4CD4E90215002D01AB04DC24F002
:10B8900024FD0028BDDAB9E72A4624F01EFD002861
:10B8A000CDDB0199A268E3680A445B1AA260E360F9
:10B8B000002BAED104F13803A3602378C3F3411306
:10B8C0000A3354F82330002BA0D004F1080204F10D
:10B8D0001001204698470028D0DA97E7802898D1B1
:10B8E000034BDA68002AC9D11B7D002BC6D190E733
:10B8F000443D00204C3D0020044B93F8C3300BB175
:10B9000024F0FABC6FF00C00704700BF443D0020EB
:10B91000054B064A9A62064ADA62064A1A63064AE2
:10B9200058629A6100207047443D002089B40200AB
:10B9300021B20200C1B2020061B20200084B10B590
:10B9400093F8B84034B900F0A1F930B1FFF7E0FF47
:10B95000204610BD6FF07700FBE74FF0FF30F8E7AF
:10B96000443D00202DE9F3410446354D35484FF064
:10B97000FF324FF0FF331CF0A9FE95F8B860002E9F
:10B980005BD131482C62E86119F02EFA18F0F0FF13
:10B99000041E36DB00F06AFA041E32DB40236846E0
:10B9A000ADF802308DF804608DF8006019F030F8C1
:10B9B000041E26DB802768468DF8007019F028F8F1
:10B9C000041E1EDB2149304619F0FAF9041E18DB6B
:10B9D0001E49384619F0F4F9041E12DB1C4CDFF83E
:10B9E0007480444514D3002019F098F8041E08DB35
:10B9F000802019F093F8041E03DB012385F8B8308A
:10BA0000002410481CF0E0FE204602B0BDE8F081A2
:10BA1000276A0026227FF3B29A4201D82434E0E755
:10BA200007EBC30257F83310107919F0C9F9013642
:10BA30000028EFD04FF0FF34E3E76FF07704E0E742
:10BA4000443D0020F80E0020EDB30200E9B70200EB
:10BA5000381200205C12002030B51F4B8BB005AAB5
:10BA600003F1100518685968144603C40833AB4243
:10BA70002246F7D11B7823701022002101A820F064
:10BA800040FC12220021154820F03BFC102101A8A7
:10BA900024F038FD00281BDD0828B8BF082008382E
:10BAA00001AB0E4A1844002110F8013B0AAC04EB2C
:10BAB000131403F00F0314F8144C14700AAC23444D
:10BAC000013113F8143C5370082902F10202EBD142
:10BAD00002480BB030BD00BF3A410500DE6C0020CB
